{
  "contractName": "Subscriptions",
  "abi": [
    {
      "anonymous": false,
      "inputs": [
        {
          "indexed": true,
          "name": "_id",
          "type": "uint256"
        },
        {
          "indexed": true,
          "name": "_client",
          "type": "address"
        },
        {
          "indexed": true,
          "name": "_provider",
          "type": "address"
        },
        {
          "indexed": false,
          "name": "_token",
          "type": "address"
        },
        {
          "indexed": false,
          "name": "_time_unit",
          "type": "uint256"
        },
        {
          "indexed": false,
          "name": "_tokens_per_time_unit",
          "type": "uint256"
        }
      ],
      "name": "SubsctiptionCreated",
      "type": "event"
    },
    {
      "anonymous": false,
      "inputs": [
        {
          "indexed": true,
          "name": "_id",
          "type": "uint256"
        },
        {
          "indexed": true,
          "name": "_client",
          "type": "address"
        },
        {
          "indexed": true,
          "name": "_provider",
          "type": "address"
        }
      ],
      "name": "SubsctiptionCanceled",
      "type": "event"
    },
    {
      "anonymous": false,
      "inputs": [
        {
          "indexed": true,
          "name": "_id",
          "type": "uint256"
        },
        {
          "indexed": true,
          "name": "_client",
          "type": "address"
        },
        {
          "indexed": true,
          "name": "_provider",
          "type": "address"
        },
        {
          "indexed": false,
          "name": "_token",
          "type": "address"
        },
        {
          "indexed": false,
          "name": "_amount",
          "type": "uint256"
        }
      ],
      "name": "SubscriptionPayed",
      "type": "event"
    },
    {
      "constant": true,
      "inputs": [
        {
          "name": "_owner",
          "type": "address"
        }
      ],
      "name": "balanceOf",
      "outputs": [
        {
          "name": "",
          "type": "uint256"
        }
      ],
      "payable": false,
      "stateMutability": "view",
      "type": "function"
    },
    {
      "constant": true,
      "inputs": [
        {
          "name": "_tokenId",
          "type": "uint256"
        }
      ],
      "name": "ownerOf",
      "outputs": [
        {
          "name": "",
          "type": "address"
        }
      ],
      "payable": false,
      "stateMutability": "view",
      "type": "function"
    },
    {
      "constant": false,
      "inputs": [
        {
          "name": "_from",
          "type": "address"
        },
        {
          "name": "_to",
          "type": "address"
        },
        {
          "name": "_tokenId",
          "type": "uint256"
        }
      ],
      "name": "transferFrom",
      "outputs": [],
      "payable": false,
      "stateMutability": "nonpayable",
      "type": "function"
    },
    {
      "constant": false,
      "inputs": [
        {
          "name": "_to",
          "type": "address"
        },
        {
          "name": "_tokenId",
          "type": "uint256"
        }
      ],
      "name": "approve",
      "outputs": [],
      "payable": false,
      "stateMutability": "nonpayable",
      "type": "function"
    },
    {
      "constant": true,
      "inputs": [
        {
          "name": "_token_id",
          "type": "uint256"
        }
      ],
      "name": "sellingIndex",
      "outputs": [
        {
          "name": "",
          "type": "uint256"
        }
      ],
      "payable": false,
      "stateMutability": "view",
      "type": "function"
    },
    {
      "constant": true,
      "inputs": [
        {
          "name": "_token_id",
          "type": "uint256"
        }
      ],
      "name": "sellingPrice",
      "outputs": [
        {
          "name": "",
          "type": "uint256"
        }
      ],
      "payable": false,
      "stateMutability": "view",
      "type": "function"
    },
    {
      "constant": true,
      "inputs": [],
      "name": "sellingCount",
      "outputs": [
        {
          "name": "",
          "type": "uint256"
        }
      ],
      "payable": false,
      "stateMutability": "view",
      "type": "function"
    },
    {
      "constant": true,
      "inputs": [
        {
          "name": "_index",
          "type": "uint256"
        }
      ],
      "name": "getSellingSubscription",
      "outputs": [
        {
          "name": "",
          "type": "uint256"
        },
        {
          "name": "",
          "type": "address"
        },
        {
          "name": "",
          "type": "address"
        },
        {
          "name": "",
          "type": "address"
        },
        {
          "name": "",
          "type": "uint256"
        },
        {
          "name": "",
          "type": "uint256"
        },
        {
          "name": "",
          "type": "uint256"
        },
        {
          "name": "",
          "type": "bool"
        },
        {
          "name": "",
          "type": "uint256"
        },
        {
          "name": "",
          "type": "uint256"
        },
        {
          "name": "",
          "type": "uint256"
        },
        {
          "name": "",
          "type": "uint256"
        }
      ],
      "payable": false,
      "stateMutability": "view",
      "type": "function"
    },
    {
      "constant": false,
      "inputs": [
        {
          "name": "_token_id",
          "type": "uint256"
        }
      ],
      "name": "withdraw",
      "outputs": [],
      "payable": false,
      "stateMutability": "nonpayable",
      "type": "function"
    },
    {
      "constant": false,
      "inputs": [
        {
          "name": "_token_id",
          "type": "uint256"
        },
        {
          "name": "_price",
          "type": "uint256"
        }
      ],
      "name": "sell",
      "outputs": [],
      "payable": false,
      "stateMutability": "nonpayable",
      "type": "function"
    },
    {
      "constant": false,
      "inputs": [
        {
          "name": "_token_id",
          "type": "uint256"
        }
      ],
      "name": "buy",
      "outputs": [],
      "payable": false,
      "stateMutability": "nonpayable",
      "type": "function"
    },
    {
      "constant": false,
      "inputs": [
        {
          "name": "_token",
          "type": "address"
        },
        {
          "name": "_provider",
          "type": "address"
        },
        {
          "name": "_time_uint",
          "type": "uint256"
        },
        {
          "name": "_tokens_per_time_unit",
          "type": "uint256"
        },
        {
          "name": "_max_subscription_time",
          "type": "uint256"
        }
      ],
      "name": "createSubscription",
      "outputs": [
        {
          "name": "",
          "type": "uint256"
        }
      ],
      "payable": false,
      "stateMutability": "nonpayable",
      "type": "function"
    },
    {
      "constant": false,
      "inputs": [
        {
          "name": "_id",
          "type": "uint256"
        }
      ],
      "name": "cancelSubscription",
      "outputs": [
        {
          "name": "",
          "type": "bool"
        }
      ],
      "payable": false,
      "stateMutability": "nonpayable",
      "type": "function"
    },
    {
      "constant": false,
      "inputs": [
        {
          "name": "_id",
          "type": "uint256"
        }
      ],
      "name": "executeSubscription",
      "outputs": [
        {
          "name": "",
          "type": "bool"
        }
      ],
      "payable": false,
      "stateMutability": "nonpayable",
      "type": "function"
    },
    {
      "constant": true,
      "inputs": [
        {
          "name": "_id",
          "type": "uint256"
        }
      ],
      "name": "getSubscriptionAmount",
      "outputs": [
        {
          "name": "",
          "type": "uint256"
        }
      ],
      "payable": false,
      "stateMutability": "view",
      "type": "function"
    },
    {
      "constant": true,
      "inputs": [
        {
          "name": "_id",
          "type": "uint256"
        },
        {
          "name": "_date",
          "type": "uint256"
        }
      ],
      "name": "getSubscriptionAmountForDate",
      "outputs": [
        {
          "name": "",
          "type": "uint256"
        }
      ],
      "payable": false,
      "stateMutability": "view",
      "type": "function"
    },
    {
      "constant": true,
      "inputs": [
        {
          "name": "_client",
          "type": "address"
        }
      ],
      "name": "getClientSubscriptionCount",
      "outputs": [
        {
          "name": "",
          "type": "uint256"
        }
      ],
      "payable": false,
      "stateMutability": "view",
      "type": "function"
    },
    {
      "constant": true,
      "inputs": [
        {
          "name": "_client",
          "type": "address"
        },
        {
          "name": "_index",
          "type": "uint256"
        }
      ],
      "name": "getClientSubscription",
      "outputs": [
        {
          "name": "",
          "type": "uint256"
        },
        {
          "name": "",
          "type": "address"
        },
        {
          "name": "",
          "type": "address"
        },
        {
          "name": "",
          "type": "address"
        },
        {
          "name": "",
          "type": "uint256"
        },
        {
          "name": "",
          "type": "uint256"
        },
        {
          "name": "",
          "type": "uint256"
        },
        {
          "name": "",
          "type": "bool"
        },
        {
          "name": "",
          "type": "uint256"
        },
        {
          "name": "",
          "type": "uint256"
        },
        {
          "name": "",
          "type": "uint256"
        }
      ],
      "payable": false,
      "stateMutability": "view",
      "type": "function"
    },
    {
      "constant": true,
      "inputs": [
        {
          "name": "_provider",
          "type": "address"
        }
      ],
      "name": "getProviderSubscriptionCount",
      "outputs": [
        {
          "name": "",
          "type": "uint256"
        }
      ],
      "payable": false,
      "stateMutability": "view",
      "type": "function"
    },
    {
      "constant": true,
      "inputs": [
        {
          "name": "_provider",
          "type": "address"
        },
        {
          "name": "_index",
          "type": "uint256"
        }
      ],
      "name": "getProviderSubscription",
      "outputs": [
        {
          "name": "",
          "type": "uint256"
        },
        {
          "name": "",
          "type": "address"
        },
        {
          "name": "",
          "type": "address"
        },
        {
          "name": "",
          "type": "address"
        },
        {
          "name": "",
          "type": "uint256"
        },
        {
          "name": "",
          "type": "uint256"
        },
        {
          "name": "",
          "type": "uint256"
        },
        {
          "name": "",
          "type": "bool"
        },
        {
          "name": "",
          "type": "uint256"
        },
        {
          "name": "",
          "type": "uint256"
        },
        {
          "name": "",
          "type": "uint256"
        }
      ],
      "payable": false,
      "stateMutability": "view",
      "type": "function"
    }
  ],
  "bytecode": "0x608060405234801561001057600080fd5b50612967806100206000396000f3fe608060405234801561001057600080fd5b506004361061012c5760003560e01c8063a59a5c8a116100ad578063d96a094a11610071578063d96a094a1461072e578063e89036561461075c578063e9cab87e146107a2578063f268f53e14610838578063ffe4e453146108905761012c565b8063a59a5c8a146105e4578063ae42bb7914610626578063b3109fa514610668578063bc92cdd2146106b4578063d79875eb146106f65761012c565b80633e5cb96f116100f45780633e5cb96f1461037857806342de4947146103d05780636352211e146103ee57806370a082311461045c578063876bebbb146104b45761012c565b8063095ea7b3146101315780631065db681461017f578063212350831461029657806323b872dd146102dc5780632e1a7d4d1461034a575b600080fd5b61017d6004803603604081101561014757600080fd5b81019080803573ffffffffffffffffffffffffffffffffffffffff169060200190929190803590602001909291905050506109c0565b005b6101ab6004803603602081101561019557600080fd5b8101908080359060200190929190505050610a56565b604051808d81526020018c73ffffffffffffffffffffffffffffffffffffffff1673ffffffffffffffffffffffffffffffffffffffff1681526020018b73ffffffffffffffffffffffffffffffffffffffff1673ffffffffffffffffffffffffffffffffffffffff1681526020018a73ffffffffffffffffffffffffffffffffffffffff1673ffffffffffffffffffffffffffffffffffffffff168152602001898152602001888152602001878152602001861515151581526020018581526020018481526020018381526020018281526020019c5050505050505050505050505060405180910390f35b6102c2600480360360208110156102ac57600080fd5b8101908080359060200190929190505050610ca8565b604051808215151515815260200191505060405180910390f35b610348600480360360608110156102f257600080fd5b81019080803573ffffffffffffffffffffffffffffffffffffffff169060200190929190803573ffffffffffffffffffffffffffffffffffffffff16906020019092919080359060200190929190505050610f63565b005b6103766004803603602081101561036057600080fd5b81019080803590602001909291905050506112bb565b005b6103ba6004803603602081101561038e57600080fd5b81019080803573ffffffffffffffffffffffffffffffffffffffff169060200190929190505050611315565b6040518082815260200191505060405180910390f35b6103d8611361565b6040518082815260200191505060405180910390f35b61041a6004803603602081101561040457600080fd5b810190808035906020019092919050505061136e565b604051808273ffffffffffffffffffffffffffffffffffffffff1673ffffffffffffffffffffffffffffffffffffffff16815260200191505060405180910390f35b61049e6004803603602081101561047257600080fd5b81019080803573ffffffffffffffffffffffffffffffffffffffff1690602001909291905050506113ad565b6040518082815260200191505060405180910390f35b610500600480360360408110156104ca57600080fd5b81019080803573ffffffffffffffffffffffffffffffffffffffff169060200190929190803590602001909291905050506113f9565b604051808c81526020018b73ffffffffffffffffffffffffffffffffffffffff1673ffffffffffffffffffffffffffffffffffffffff1681526020018a73ffffffffffffffffffffffffffffffffffffffff1673ffffffffffffffffffffffffffffffffffffffff1681526020018973ffffffffffffffffffffffffffffffffffffffff1673ffffffffffffffffffffffffffffffffffffffff168152602001888152602001878152602001868152602001851515151581526020018481526020018381526020018281526020019b50505050505050505050505060405180910390f35b610610600480360360208110156105fa57600080fd5b8101908080359060200190929190505050611658565b6040518082815260200191505060405180910390f35b6106526004803603602081101561063c57600080fd5b8101908080359060200190929190505050611675565b6040518082815260200191505060405180910390f35b61069e6004803603604081101561067e57600080fd5b810190808035906020019092919080359060200190929190505050611692565b6040518082815260200191505060405180910390f35b6106e0600480360360208110156106ca57600080fd5b8101908080359060200190929190505050611782565b6040518082815260200191505060405180910390f35b61072c6004803603604081101561070c57600080fd5b810190808035906020019092919080359060200190929190505050611795565b005b61075a6004803603602081101561074457600080fd5b810190808035906020019092919050505061188a565b005b6107886004803603602081101561077257600080fd5b8101908080359060200190929190505050611b7f565b604051808215151515815260200191505060405180910390f35b610822600480360360a08110156107b857600080fd5b81019080803573ffffffffffffffffffffffffffffffffffffffff169060200190929190803573ffffffffffffffffffffffffffffffffffffffff169060200190929190803590602001909291908035906020019092919080359060200190929190505050611ee8565b6040518082815260200191505060405180910390f35b61087a6004803603602081101561084e57600080fd5b81019080803573ffffffffffffffffffffffffffffffffffffffff1690602001909291905050506124cc565b6040518082815260200191505060405180910390f35b6108dc600480360360408110156108a657600080fd5b81019080803573ffffffffffffffffffffffffffffffffffffffff16906020019092919080359060200190929190505050612518565b604051808c81526020018b73ffffffffffffffffffffffffffffffffffffffff1673ffffffffffffffffffffffffffffffffffffffff1681526020018a73ffffffffffffffffffffffffffffffffffffffff1673ffffffffffffffffffffffffffffffffffffffff1681526020018973ffffffffffffffffffffffffffffffffffffffff1673ffffffffffffffffffffffffffffffffffffffff168152602001888152602001878152602001868152602001851515151581526020018481526020018381526020018281526020019b50505050505050505050505060405180910390f35b3373ffffffffffffffffffffffffffffffffffffffff166109e08261136e565b73ffffffffffffffffffffffffffffffffffffffff1614610a0057600080fd5b816003600083815260200190815260200160002060006101000a81548173ffffffffffffffffffffffffffffffffffffffff021916908373ffffffffffffffffffffffffffffffffffffffff1602179055505050565b6000806000806000806000806000806000806000600560008f8152602001908152602001600020549050600060048281548110610a8f57fe5b90600052602060002001549050610aa4612853565b600080838152602001908152602001600020604051806101400160405290816000820160009054906101000a900473ffffffffffffffffffffffffffffffffffffffff1673ffffffffffffffffffffffffffffffffffffffff1673ffffffffffffffffffffffffffffffffffffffff1681526020016001820160009054906101000a900473ffffffffffffffffffffffffffffffffffffffff1673ffffffffffffffffffffffffffffffffffffffff1673ffffffffffffffffffffffffffffffffffffffff1681526020016002820160009054906101000a900473ffffffffffffffffffffffffffffffffffffffff1673ffffffffffffffffffffffffffffffffffffffff1673ffffffffffffffffffffffffffffffffffffffff1681526020016003820154815260200160048201548152602001600582015481526020016006820154815260200160078201548152602001600882015481526020016009820160009054906101000a900460ff16151515158152505090506000809050816101200151610c3857610c3583611782565b90505b82826000015183602001518460400151856060015186608001518760a00151886101200151888a60c00151600660008e8152602001908152602001600020548c61010001519f509f509f509f509f509f509f509f509f509f509f509f505050505091939597999b5091939597999b565b60003373ffffffffffffffffffffffffffffffffffffffff1660008084815260200190815260200160002060000160009054906101000a900473ffffffffffffffffffffffffffffffffffffffff1673ffffffffffffffffffffffffffffffffffffffff1614610d1757600080fd5b6000151560008084815260200190815260200160002060090160009054906101000a900460ff16151514610d4a57600080fd5b610d5382611b7f565b50600160008084815260200190815260200160002060090160006101000a81548160ff021916908315150217905550600080600084815260200190815260200160002060010160009054906101000a900473ffffffffffffffffffffffffffffffffffffffff1690508073ffffffffffffffffffffffffffffffffffffffff1663a9059cbb60008086815260200190815260200160002060000160009054906101000a900473ffffffffffffffffffffffffffffffffffffffff16600080878152602001908152602001600020600801546040518363ffffffff1660e01b8152600401808373ffffffffffffffffffffffffffffffffffffffff1673ffffffffffffffffffffffffffffffffffffffff16815260200182815260200192505050602060405180830381600087803b158015610e8d57600080fd5b505af1158015610ea1573d6000803e3d6000fd5b505050506040513d6020811015610eb757600080fd5b81019080805190602001909291905050505060008084815260200190815260200160002060020160009054906101000a900473ffffffffffffffffffffffffffffffffffffffff1673ffffffffffffffffffffffffffffffffffffffff163373ffffffffffffffffffffffffffffffffffffffff16847fd8777ff58861e451b8c55f3289c70375ce56d653cdc5a2e1b89502ad69bdd40f60405160405180910390a46001915050919050565b8273ffffffffffffffffffffffffffffffffffffffff168273ffffffffffffffffffffffffffffffffffffffff161415610f9c57600080fd5b600073ffffffffffffffffffffffffffffffffffffffff168273ffffffffffffffffffffffffffffffffffffffff161415610fd657600080fd5b6000600260008573ffffffffffffffffffffffffffffffffffffffff1673ffffffffffffffffffffffffffffffffffffffff16815260200190815260200160002080549050905060008090505b818110156111f75782600260008773ffffffffffffffffffffffffffffffffffffffff1673ffffffffffffffffffffffffffffffffffffffff168152602001908152602001600020828154811061107657fe5b906000526020600020015414156111ea57600260008673ffffffffffffffffffffffffffffffffffffffff1673ffffffffffffffffffffffffffffffffffffffff16815260200190815260200160002060018303815481106110d457fe5b9060005260206000200154600260008773ffffffffffffffffffffffffffffffffffffffff1673ffffffffffffffffffffffffffffffffffffffff168152602001908152602001600020828154811061112957fe5b9060005260206000200181905550600260008673ffffffffffffffffffffffffffffffffffffffff1673ffffffffffffffffffffffffffffffffffffffff168152602001908152602001600020600183038154811061118457fe5b9060005260206000200160009055600260008673ffffffffffffffffffffffffffffffffffffffff1673ffffffffffffffffffffffffffffffffffffffff1681526020019081526020016000208054809190600190036111e491906128ea565b506111f7565b8080600101915050611023565b508260008084815260200190815260200160002060020160006101000a81548173ffffffffffffffffffffffffffffffffffffffff021916908373ffffffffffffffffffffffffffffffffffffffff160217905550600260008473ffffffffffffffffffffffffffffffffffffffff1673ffffffffffffffffffffffffffffffffffffffff16815260200190815260200160002082908060018154018082558091505090600182039060005260206000200160009091929091909150555050505050565b60008114156112c957600080fd5b3373ffffffffffffffffffffffffffffffffffffffff166112e98261136e565b73ffffffffffffffffffffffffffffffffffffffff161461130957600080fd5b61131281612777565b50565b6000600160008373ffffffffffffffffffffffffffffffffffffffff1673ffffffffffffffffffffffffffffffffffffffff168152602001908152602001600020805490509050919050565b6000600480549050905090565b600080600083815260200190815260200160002060020160009054906101000a900473ffffffffffffffffffffffffffffffffffffffff169050919050565b6000600260008373ffffffffffffffffffffffffffffffffffffffff1673ffffffffffffffffffffffffffffffffffffffff168152602001908152602001600020805490509050919050565b600080600080600080600080600080600080600260008f73ffffffffffffffffffffffffffffffffffffffff1673ffffffffffffffffffffffffffffffffffffffff1681526020019081526020016000208d8154811061145557fe5b9060005260206000200154905061146a612853565b600080838152602001908152602001600020604051806101400160405290816000820160009054906101000a900473ffffffffffffffffffffffffffffffffffffffff1673ffffffffffffffffffffffffffffffffffffffff1673ffffffffffffffffffffffffffffffffffffffff1681526020016001820160009054906101000a900473ffffffffffffffffffffffffffffffffffffffff1673ffffffffffffffffffffffffffffffffffffffff1673ffffffffffffffffffffffffffffffffffffffff1681526020016002820160009054906101000a900473ffffffffffffffffffffffffffffffffffffffff1673ffffffffffffffffffffffffffffffffffffffff1673ffffffffffffffffffffffffffffffffffffffff1681526020016003820154815260200160048201548152602001600582015481526020016006820154815260200160078201548152602001600882015481526020016009820160009054906101000a900460ff161515151581525050905060008090508161012001516115fe576115fb83611782565b90505b82826000015183602001518460400151856060015186608001518760a00151886101200151888a60c001518b61010001519d509d509d509d509d509d509d509d509d509d509d505050509295989b509295989b9093969950565b600060056000838152602001908152602001600020549050919050565b600060066000838152602001908152602001600020549050919050565b60008060008481526020019081526020016000206005015482116116b557600080fd5b6000151560008085815260200190815260200160002060090160009054906101000a900460ff161515146116e857600080fd5b60008060008581526020019081526020016000206003015490506000806000868152602001908152602001600020600401549050600080600087815260200190815260200160002060050154905060008060008881526020019081526020016000206008015490506000848388038161175d57fe5b0490506000848202905082811115611773578290505b80965050505050505092915050565b600061178e8242611692565b9050919050565b60008214156117a357600080fd5b60008114156117b157600080fd5b6001151560008084815260200190815260200160002060090160009054906101000a900460ff16151514156117e557600080fd5b3373ffffffffffffffffffffffffffffffffffffffff166118058361136e565b73ffffffffffffffffffffffffffffffffffffffff161461182557600080fd5b806006600084815260200190815260200160002081905550600480549050600560008481526020019081526020016000208190555060048290806001815401808255809150509060018203906000526020600020016000909192909190915055505050565b600081141561189857600080fd5b3373ffffffffffffffffffffffffffffffffffffffff166118b88261136e565b73ffffffffffffffffffffffffffffffffffffffff1614156118d957600080fd5b6118e281611b7f565b50600080600083815260200190815260200160002060010160009054906101000a900473ffffffffffffffffffffffffffffffffffffffff1690508073ffffffffffffffffffffffffffffffffffffffff166323b872dd333060066000878152602001908152602001600020546040518463ffffffff1660e01b8152600401808473ffffffffffffffffffffffffffffffffffffffff1673ffffffffffffffffffffffffffffffffffffffff1681526020018373ffffffffffffffffffffffffffffffffffffffff1673ffffffffffffffffffffffffffffffffffffffff1681526020018281526020019350505050602060405180830381600087803b1580156119eb57600080fd5b505af11580156119ff573d6000803e3d6000fd5b505050506040513d6020811015611a1557600080fd5b8101908080519060200190929190505050508073ffffffffffffffffffffffffffffffffffffffff1663a9059cbb60008085815260200190815260200160002060020160009054906101000a900473ffffffffffffffffffffffffffffffffffffffff1660066000868152602001908152602001600020546040518363ffffffff1660e01b8152600401808373ffffffffffffffffffffffffffffffffffffffff1673ffffffffffffffffffffffffffffffffffffffff16815260200182815260200192505050602060405180830381600087803b158015611af657600080fd5b505af1158015611b0a573d6000803e3d6000fd5b505050506040513d6020811015611b2057600080fd5b810190808051906020019092919050505050611b7260008084815260200190815260200160002060020160009054906101000a900473ffffffffffffffffffffffffffffffffffffffff163384610f63565b611b7b82612777565b5050565b600080151560008084815260200190815260200160002060090160009054906101000a900460ff16151514611bb357600080fd5b6000611bbe83611782565b90504260008085815260200190815260200160002060050181905550600080600085815260200190815260200160002060010160009054906101000a900473ffffffffffffffffffffffffffffffffffffffff1690508073ffffffffffffffffffffffffffffffffffffffff1663a9059cbb60008087815260200190815260200160002060020160009054906101000a900473ffffffffffffffffffffffffffffffffffffffff16846040518363ffffffff1660e01b8152600401808373ffffffffffffffffffffffffffffffffffffffff1673ffffffffffffffffffffffffffffffffffffffff16815260200182815260200192505050602060405180830381600087803b158015611cd057600080fd5b505af1158015611ce4573d6000803e3d6000fd5b505050506040513d6020811015611cfa57600080fd5b8101908080519060200190929190505050508160008086815260200190815260200160002060080154036000808681526020019081526020016000206008018190555042600080868152602001908152602001600020600501819055506000806000868152602001908152602001600020600801541415611da457600160008086815260200190815260200160002060090160006101000a81548160ff0219169083151502179055505b60008085815260200190815260200160002060020160009054906101000a900473ffffffffffffffffffffffffffffffffffffffff1673ffffffffffffffffffffffffffffffffffffffff1660008086815260200190815260200160002060000160009054906101000a900473ffffffffffffffffffffffffffffffffffffffff1673ffffffffffffffffffffffffffffffffffffffff16857f1d22266268ccdbcbd3d0f9d997063fade0c22b17f4db749eb9d743c54eaabe7b60008089815260200190815260200160002060010160009054906101000a900473ffffffffffffffffffffffffffffffffffffffff1686604051808373ffffffffffffffffffffffffffffffffffffffff1673ffffffffffffffffffffffffffffffffffffffff1681526020018281526020019250505060405180910390a4600192505050919050565b60008073ffffffffffffffffffffffffffffffffffffffff168673ffffffffffffffffffffffffffffffffffffffff161415611f2357600080fd5b600073ffffffffffffffffffffffffffffffffffffffff168573ffffffffffffffffffffffffffffffffffffffff161415611f5d57600080fd5b60008411611f6a57600080fd5b60008311611f7757600080fd5b60008211611f8457600080fd5b6000828402905060008790508073ffffffffffffffffffffffffffffffffffffffff166323b872dd3330856040518463ffffffff1660e01b8152600401808473ffffffffffffffffffffffffffffffffffffffff1673ffffffffffffffffffffffffffffffffffffffff1681526020018373ffffffffffffffffffffffffffffffffffffffff1673ffffffffffffffffffffffffffffffffffffffff1681526020018281526020019350505050602060405180830381600087803b15801561204b57600080fd5b505af115801561205f573d6000803e3d6000fd5b505050506040513d602081101561207557600080fd5b8101908080519060200190929190505050506000338989898942604051602001808773ffffffffffffffffffffffffffffffffffffffff1673ffffffffffffffffffffffffffffffffffffffff1660601b81526014018673ffffffffffffffffffffffffffffffffffffffff1673ffffffffffffffffffffffffffffffffffffffff1660601b81526014018573ffffffffffffffffffffffffffffffffffffffff1673ffffffffffffffffffffffffffffffffffffffff1660601b815260140184815260200183815260200182815260200196505050505050506040516020818303038152906040528051906020012060001c9050612172612853565b6040518061014001604052803373ffffffffffffffffffffffffffffffffffffffff1681526020018b73ffffffffffffffffffffffffffffffffffffffff1681526020018a73ffffffffffffffffffffffffffffffffffffffff1681526020018981526020018881526020014281526020018781526020014281526020018581526020016000151581525090508060008084815260200190815260200160002060008201518160000160006101000a81548173ffffffffffffffffffffffffffffffffffffffff021916908373ffffffffffffffffffffffffffffffffffffffff16021790555060208201518160010160006101000a81548173ffffffffffffffffffffffffffffffffffffffff021916908373ffffffffffffffffffffffffffffffffffffffff16021790555060408201518160020160006101000a81548173ffffffffffffffffffffffffffffffffffffffff021916908373ffffffffffffffffffffffffffffffffffffffff160217905550606082015181600301556080820151816004015560a0820151816005015560c0820151816006015560e0820151816007015561010082015181600801556101208201518160090160006101000a81548160ff021916908315150217905550905050600160003373ffffffffffffffffffffffffffffffffffffffff1673ffffffffffffffffffffffffffffffffffffffff168152602001908152602001600020829080600181540180825580915050906001820390600052602060002001600090919290919091505550600260008a73ffffffffffffffffffffffffffffffffffffffff1673ffffffffffffffffffffffffffffffffffffffff1681526020019081526020016000208290806001815401808255809150509060018203906000526020600020016000909192909190915055508873ffffffffffffffffffffffffffffffffffffffff163373ffffffffffffffffffffffffffffffffffffffff16837fd94e5fbe6928a31aa9aa5a1de552ab44edb68e259c00d305a19e6408dddc3c618d8c8c604051808473ffffffffffffffffffffffffffffffffffffffff1673ffffffffffffffffffffffffffffffffffffffff168152602001838152602001828152602001935050505060405180910390a48194505050505095945050505050565b6000600260008373ffffffffffffffffffffffffffffffffffffffff1673ffffffffffffffffffffffffffffffffffffffff168152602001908152602001600020805490509050919050565b600080600080600080600080600080600080600160008f73ffffffffffffffffffffffffffffffffffffffff1673ffffffffffffffffffffffffffffffffffffffff1681526020019081526020016000208d8154811061257457fe5b90600052602060002001549050612589612853565b600080838152602001908152602001600020604051806101400160405290816000820160009054906101000a900473ffffffffffffffffffffffffffffffffffffffff1673ffffffffffffffffffffffffffffffffffffffff1673ffffffffffffffffffffffffffffffffffffffff1681526020016001820160009054906101000a900473ffffffffffffffffffffffffffffffffffffffff1673ffffffffffffffffffffffffffffffffffffffff1673ffffffffffffffffffffffffffffffffffffffff1681526020016002820160009054906101000a900473ffffffffffffffffffffffffffffffffffffffff1673ffffffffffffffffffffffffffffffffffffffff1673ffffffffffffffffffffffffffffffffffffffff1681526020016003820154815260200160048201548152602001600582015481526020016006820154815260200160078201548152602001600882015481526020016009820160009054906101000a900460ff1615151515815250509050600080905081610120015161271d5761271a83611782565b90505b82826000015183602001518460400151856060015186608001518760a00151886101200151888a60c001518b61010001519d509d509d509d509d509d509d509d509d509d509d505050509295989b509295989b9093969950565b60006005600083815260200190815260200160002054905060006004600160048054905003815481106127a657fe5b9060005260206000200154905080600483815481106127c157fe5b90600052602060002001819055508160056000838152602001908152602001600020819055506004600160048054905003815481106127fc57fe5b906000526020600020016000905560056000848152602001908152602001600020600090556006600084815260200190815260200160002060009055600480548091906001900361284d91906128ea565b50505050565b604051806101400160405280600073ffffffffffffffffffffffffffffffffffffffff168152602001600073ffffffffffffffffffffffffffffffffffffffff168152602001600073ffffffffffffffffffffffffffffffffffffffff1681526020016000815260200160008152602001600081526020016000815260200160008152602001600081526020016000151581525090565b815481835581811115612911578183600052602060002091820191016129109190612916565b5b505050565b61293891905b8082111561293457600081600090555060010161291c565b5090565b9056fea165627a7a723058205231bb211d0d105c22e53f6c10bb4e7afd53fe9cc2f95cef4ac7c1332802461e0029",
  "source": "pragma solidity ^0.5.0;\n\nimport \"./IERC20.sol\";\n\ncontract Subscriptions {\n    \n    /// Describes subscription\n    struct Subscription {\n        /// subscription client\n        address client;\n        \n        /// defines the token contract which payments are paid from.\n        address token;\n        \n        /// the address of the provider\n        address provider;\n        \n        /// the number of seconds per time unit\n        uint256 time_unit;\n        \n        ///  the number of tokens that can be paid towards the subscription per time_unit;\n        uint256 tokens_per_time_unit;\n        \n        /// the timestamp when the last payment was made\n        uint256 last_payment_at;\n        \n        /// max subscription time\n        uint256 max_subscription_time;\n        \n        /// when we started our subscription\n        uint256 subscription_time;\n        \n        /// total amount in subscription\n        uint256 amount;\n        \n        /// if the subscription has been cancelled\n        bool canceled;\n    }\n    \n    /// Event that a new subscription was created\n    event SubsctiptionCreated(\n        uint256 indexed _id,\n        address indexed _client,\n        address indexed _provider,\n        address _token,\n        uint256 _time_unit,\n        uint256 _tokens_per_time_unit\n    );\n    \n    /// Event that a new subscription was canceled\n    event SubsctiptionCanceled(\n        uint256 indexed _id,\n        address indexed _client,\n        address indexed _provider\n    );\n    \n    /// Event that a subscription was payed\n    event SubscriptionPayed(\n        uint256 indexed _id,\n        address indexed _client,\n        address indexed _provider,\n        address _token,\n        uint256 _amount\n    );\n    \n    /// All subscriptions in a system\n    mapping(uint256 => Subscription) subscriptions;\n    \n    /// Subscriptions of concrete user\n    mapping(address => uint256[]) clients;\n    \n    /// Subscriptions of concrete provider\n    mapping(address => uint256[]) providers;\n    \n    /// Approval mapping for selling\n    mapping(uint256 => address) approvals;\n    \n    /// List of subscriptions on sale\n    uint256[] selling;\n    \n    /// Mapping of selling items index\n    mapping(uint256 => uint256) selling_index;\n    \n    /// Mapping of selling item to price\n    mapping(uint256 => uint256) selling_price;\n    \n    /// This part implements part of ERC721 Token standard for subscriptions\n    /// -=-=-=-=-=-=-=-=-=-=-=-=-=-=-=-=-=-=-=-=-=-=-=-=-=-=-=-=-=-=-=-=-=-=-=-=-=-\n    /// Part of ERC721 API. \n    function balanceOf(address _owner) public view returns (uint256) {\n        return providers[_owner].length;\n    }\n    \n    function ownerOf(uint256 _tokenId) public view returns (address) {\n        return subscriptions[_tokenId].provider;\n    }\n    \n    function transferFrom(\n        address _from, \n        address _to, \n        uint256 _tokenId\n    ) public {\n        require(_to != _from);\n        require(_to != address(0));\n        \n        uint256 arrayLength = providers[_from].length;\n        for (uint256 i=0; i<arrayLength; i++) {\n            // TODO: Get rid of cycle dut to performance reasons\n            if (providers[_from][i] == _tokenId) {\n                providers[_from][i] = providers[_from][arrayLength - 1];\n                \n                delete providers[_from][arrayLength - 1];\n                providers[_from].length--;\n                \n                break;\n            }  \n        }\n\n        subscriptions[_tokenId].provider = _to;\n        providers[_to].push(_tokenId);\n    }\n    \n    function approve(\n            address _to, \n            uint256 _tokenId\n        ) public {\n        \n        require(ownerOf(_tokenId) == msg.sender);\n        approvals[_tokenId] = _to;\n    }\n    /// -=-=-=-=-=-=-=-=-=-=-=-=-=-=-=-=-=-=-=-=-=-=-=-=-=-=-=-=-=-=-=-=-=-=-=-=-=-\n    /// End of ERC721 Tiken standard\n    \n\n    function sellingIndex(uint256 _token_id) public view returns (uint256) {\n        return selling_index[_token_id];\n    }\n    \n    function sellingPrice(uint256 _token_id) public view returns (uint256) {\n        return selling_price[_token_id];\n    }\n    \n    function sellingCount() public view returns (uint256) {\n        return selling.length;\n    }\n    \n    function getSellingSubscription(\n        uint256 _index\n    ) public view returns \n    (\n        uint256,\n        address,\n        address,\n        address,\n        uint256,\n        uint256,\n        uint256,\n        bool,\n        uint256,\n        uint256,\n        uint256,\n        uint256\n    ) {\n        uint256 index = selling_index[_index];\n        uint256 id = selling[index];\n        Subscription memory subscription = subscriptions[id];\n        uint256 amount = 0;\n        if (!subscription.canceled) {\n            amount = getSubscriptionAmount(id);\n        }\n        return (\n            id,\n            subscription.client,\n            subscription.token,\n            subscription.provider,\n            subscription.time_unit,\n            subscription.tokens_per_time_unit,\n            subscription.last_payment_at,\n            subscription.canceled,\n            amount,\n            subscription.max_subscription_time,\n            selling_price[id],\n            subscription.amount\n        );\n    }\n\n    function removeFromSale(uint256 _token_id) internal {\n        uint256 index = selling_index[_token_id];\n        \n        // Take last element\n        uint256 movedElement = selling[selling.length - 1]; \n        \n        // Move it in place of deleting element\n        selling[index] = movedElement;\n        \n        // Update index association\n        selling_index[movedElement] = index;\n        \n        delete selling[selling.length - 1];\n        delete selling_index[_token_id];\n        delete selling_price[_token_id];\n        \n        selling.length--;\n    }\n\n    function withdraw(\n        uint256 _token_id\n    ) public {\n        require(_token_id != 0);\n        require(ownerOf(_token_id) == msg.sender);\n\n        removeFromSale(_token_id);\n    }\n    \n    function sell(uint256 _token_id, uint256 _price) public {\n        require(_token_id != 0);\n        require(_price != 0);\n        require(subscriptions[_token_id].canceled != true);\n        require(ownerOf(_token_id) == msg.sender);\n        \n        selling_price[_token_id] = _price;\n        selling_index[_token_id] = selling.length;\n        selling.push(_token_id);\n    }\n    \n    function buy(uint256 _token_id) public {\n        require(_token_id != 0);\n        require(ownerOf(_token_id) != msg.sender);\n\n        executeSubscription(_token_id);\n\n        IERC20 token = IERC20(subscriptions[_token_id].token);\n        token.transferFrom(\n            msg.sender,\n            address(this),\n            selling_price[_token_id]\n        );\n        \n        token.transfer(subscriptions[_token_id].provider, selling_price[_token_id]);\n        \n        transferFrom(\n            subscriptions[_token_id].provider,\n            msg.sender,\n            _token_id\n        );\n\n        removeFromSale(_token_id);\n    }\n    \n    /// Creates new subscription\n    function createSubscription(\n        address _token, \n        address _provider,\n        uint256 _time_uint,\n        uint256 _tokens_per_time_unit,\n        uint256 _max_subscription_time\n    ) public returns (uint256) {\n        \n        // Checks on input data basic validity. Note, that \n        // there can be on-chain subscription terms registry\n        //\n        require(_token != address(0));\n        require(_provider != address(0));\n        require(_time_uint > 0);\n        require(_tokens_per_time_unit > 0);\n        require(_max_subscription_time > 0);\n        \n        uint256 amount = _tokens_per_time_unit * _max_subscription_time;\n        \n        // Accept payment right away\n        //\n        IERC20 token = IERC20(_token);\n        token.transferFrom(\n            msg.sender,\n            address(this),\n            amount\n        );\n        \n        uint256 id = uint256(keccak256(abi.encodePacked(\n            msg.sender,\n            _token,\n            _provider,\n            _time_uint,\n            _tokens_per_time_unit,\n            now\n        )));\n        \n        Subscription memory subscription = Subscription(\n            msg.sender,\n            _token,\n            _provider,\n            _time_uint,\n            _tokens_per_time_unit,\n            now,\n            _max_subscription_time,\n            now,\n            amount,\n            false\n        );\n        \n        subscriptions[id] = subscription;\n        clients[msg.sender].push(id);\n        providers[_provider].push(id);\n        \n        emit SubsctiptionCreated(\n            id,\n            msg.sender,\n            _provider,\n            _token,\n            _time_uint,\n            _tokens_per_time_unit\n        );\n        \n        return id;\n    }\n    \n    /// Cancels subscription\n    function cancelSubscription(\n        uint256 _id\n    ) public returns (bool) {\n        \n        require(subscriptions[_id].client == msg.sender);\n        require(subscriptions[_id].canceled == false);\n        \n        executeSubscription(_id);\n        \n        subscriptions[_id].canceled = true;\n        \n        IERC20 token = IERC20(subscriptions[_id].token);\n        token.transfer(subscriptions[_id].client, subscriptions[_id].amount);\n\n        emit SubsctiptionCanceled(\n            _id,\n            msg.sender,\n            subscriptions[_id].provider\n        );\n        \n        return true;\n    }\n    \n    /// Executes subscriptions\n    function executeSubscription(\n        uint256 _id\n    ) public returns (bool) {\n            \n        require(subscriptions[_id].canceled == false);\n        \n        uint256 amount = getSubscriptionAmount(_id);\n        \n        subscriptions[_id].last_payment_at = now;\n        \n        IERC20 token = IERC20(subscriptions[_id].token);\n        token.transfer(subscriptions[_id].provider, amount);\n        \n        subscriptions[_id].amount = subscriptions[_id].amount - amount;\n        subscriptions[_id].last_payment_at = now;\n        \n        if (subscriptions[_id].amount == 0) {\n            subscriptions[_id].canceled = true;\n        }\n        \n        emit SubscriptionPayed(\n            _id,\n            subscriptions[_id].client,\n            subscriptions[_id].provider,\n            subscriptions[_id].token,\n            amount\n        );\n        \n        return true;\n    }\n    \n    /// Computes how much provider can withdraw with conrete subscription\n    function getSubscriptionAmount(\n        uint256 _id\n    ) public view returns (uint256) {\n        \n        return getSubscriptionAmountForDate(_id, now);\n    }\n    \n        /// Computes how much provider can withdraw with conrete subscription\n    function getSubscriptionAmountForDate(\n        uint256 _id,\n        uint256 _date\n    ) public view returns (uint256) {\n        \n        require(_date > subscriptions[_id].last_payment_at);\n        require(subscriptions[_id].canceled == false);\n        \n        uint256 time_unit = subscriptions[_id].time_unit;\n        uint256 tokens_per_time_unit = subscriptions[_id].tokens_per_time_unit;\n        uint256 last_payment_at = subscriptions[_id].last_payment_at;\n        uint256 remaning = subscriptions[_id].amount;\n        \n        uint256 periods =  (_date - last_payment_at) / time_unit;\n        \n        uint256 amount = periods * tokens_per_time_unit;\n        if (amount > remaning) {\n            amount = remaning;\n        }\n        return amount;\n    }\n    \n    function getClientSubscriptionCount(\n        address _client\n    ) public view returns (uint256) {\n        return clients[_client].length;\n    }\n    \n    function getClientSubscription(\n        address _client,\n        uint256 _index\n    ) public view returns \n    (\n        uint256,\n        address,\n        address,\n        address,\n        uint256,\n        uint256,\n        uint256,\n        bool,\n        uint256,\n        uint256,\n        uint256\n    ) {\n        uint256 id = clients[_client][_index];\n        Subscription memory subscription = subscriptions[id];\n        uint256 amount = 0;\n        if (!subscription.canceled) {\n            amount = getSubscriptionAmount(id);\n        }\n        return (\n            id,\n            subscription.client,\n            subscription.token,\n            subscription.provider,\n            subscription.time_unit,\n            subscription.tokens_per_time_unit,\n            subscription.last_payment_at,\n            subscription.canceled,\n            amount,\n            subscription.max_subscription_time,\n            subscription.amount\n        );\n    }\n    \n    function getProviderSubscriptionCount(\n        address _provider\n    ) public view returns (uint256) {\n        return providers[_provider].length;\n    }\n    \n    function getProviderSubscription(\n        address _provider,\n        uint256 _index\n    ) public view returns \n    (\n        uint256,\n        address,\n        address,\n        address,\n        uint256,\n        uint256,\n        uint256,\n        bool,\n        uint256,\n        uint256,\n        uint256\n    ) {\n        uint256 id = providers[_provider][_index];\n        Subscription memory subscription = subscriptions[id];\n        uint256 amount = 0;\n        if (!subscription.canceled) {\n            amount = getSubscriptionAmount(id);\n        }\n        return (\n            id,\n            subscription.client,\n            subscription.token,\n            subscription.provider,\n            subscription.time_unit,\n            subscription.tokens_per_time_unit,\n            subscription.last_payment_at,\n            subscription.canceled,\n            amount,\n            subscription.max_subscription_time,\n            subscription.amount\n        );\n    }\n}\n",
  "sourcePath": "/Users/dvasin/dev/easyscribe/contracts/Subscriptions.sol",
  "compiler": {
    "name": "solc",
    "version": "0.5.8+commit.23d335f2.Emscripten.clang"
  },
  "schemaVersion": "3.0.16",
  "updatedAt": "2019-10-27T11:18:49.024Z",
  "devdoc": {
    "methods": {}
  },
  "userdoc": {
    "methods": {
      "balanceOf(address)": {
        "notice": "This part implements part of ERC721 Token standard for subscriptions -=-=-=-=-=-=-=-=-=-=-=-=-=-=-=-=-=-=-=-=-=-=-=-=-=-=-=-=-=-=-=-=-=-=-=-=-=- Part of ERC721 API. "
      },
      "cancelSubscription(uint256)": {
        "notice": "Cancels subscription"
      },
      "createSubscription(address,address,uint256,uint256,uint256)": {
        "notice": "Creates new subscription"
      },
      "executeSubscription(uint256)": {
        "notice": "Executes subscriptions"
      },
      "getSubscriptionAmount(uint256)": {
        "notice": "Computes how much provider can withdraw with conrete subscription"
      },
      "getSubscriptionAmountForDate(uint256,uint256)": {
        "notice": "Computes how much provider can withdraw with conrete subscription"
      },
      "sellingIndex(uint256)": {
        "notice": "-=-=-=-=-=-=-=-=-=-=-=-=-=-=-=-=-=-=-=-=-=-=-=-=-=-=-=-=-=-=-=-=-=-=-=-=-=- End of ERC721 Tiken standard"
      }
    }
  }
}