{
  "contractName": "Subscriptions",
  "abi": [
    {
      "anonymous": false,
      "inputs": [
        {
          "indexed": true,
          "name": "_id",
          "type": "uint256"
        },
        {
          "indexed": true,
          "name": "_client",
          "type": "address"
        },
        {
          "indexed": true,
          "name": "_provider",
          "type": "address"
        },
        {
          "indexed": false,
          "name": "_token",
          "type": "address"
        },
        {
          "indexed": false,
          "name": "_time_unit",
          "type": "uint256"
        },
        {
          "indexed": false,
          "name": "_tokens_per_time_unit",
          "type": "uint256"
        }
      ],
      "name": "SubsctiptionCreated",
      "type": "event"
    },
    {
      "anonymous": false,
      "inputs": [
        {
          "indexed": true,
          "name": "_id",
          "type": "uint256"
        },
        {
          "indexed": true,
          "name": "_client",
          "type": "address"
        },
        {
          "indexed": true,
          "name": "_provider",
          "type": "address"
        }
      ],
      "name": "SubsctiptionCanceled",
      "type": "event"
    },
    {
      "anonymous": false,
      "inputs": [
        {
          "indexed": true,
          "name": "_id",
          "type": "uint256"
        },
        {
          "indexed": true,
          "name": "_client",
          "type": "address"
        },
        {
          "indexed": true,
          "name": "_provider",
          "type": "address"
        },
        {
          "indexed": false,
          "name": "_token",
          "type": "address"
        },
        {
          "indexed": false,
          "name": "_amount",
          "type": "uint256"
        }
      ],
      "name": "SubscriptionPayed",
      "type": "event"
    },
    {
      "constant": true,
      "inputs": [
        {
          "name": "_owner",
          "type": "address"
        }
      ],
      "name": "balanceOf",
      "outputs": [
        {
          "name": "",
          "type": "uint256"
        }
      ],
      "payable": false,
      "stateMutability": "view",
      "type": "function"
    },
    {
      "constant": true,
      "inputs": [
        {
          "name": "_tokenId",
          "type": "uint256"
        }
      ],
      "name": "ownerOf",
      "outputs": [
        {
          "name": "",
          "type": "address"
        }
      ],
      "payable": false,
      "stateMutability": "view",
      "type": "function"
    },
    {
      "constant": false,
      "inputs": [
        {
          "name": "_to",
          "type": "address"
        },
        {
          "name": "_tokenId",
          "type": "uint256"
        }
      ],
      "name": "approve",
      "outputs": [],
      "payable": false,
      "stateMutability": "nonpayable",
      "type": "function"
    },
    {
      "constant": true,
      "inputs": [
        {
          "name": "_token_id",
          "type": "uint256"
        }
      ],
      "name": "sellingIndex",
      "outputs": [
        {
          "name": "",
          "type": "uint256"
        }
      ],
      "payable": false,
      "stateMutability": "view",
      "type": "function"
    },
    {
      "constant": true,
      "inputs": [
        {
          "name": "_token_id",
          "type": "uint256"
        }
      ],
      "name": "sellingPrice",
      "outputs": [
        {
          "name": "",
          "type": "uint256"
        }
      ],
      "payable": false,
      "stateMutability": "view",
      "type": "function"
    },
    {
      "constant": true,
      "inputs": [],
      "name": "sellingCount",
      "outputs": [
        {
          "name": "",
          "type": "uint256"
        }
      ],
      "payable": false,
      "stateMutability": "view",
      "type": "function"
    },
    {
      "constant": true,
      "inputs": [
        {
          "name": "_index",
          "type": "uint256"
        }
      ],
      "name": "getSellingSubscription",
      "outputs": [
        {
          "name": "",
          "type": "uint256"
        },
        {
          "name": "",
          "type": "address"
        },
        {
          "name": "",
          "type": "address"
        },
        {
          "name": "",
          "type": "address"
        },
        {
          "name": "",
          "type": "uint256"
        },
        {
          "name": "",
          "type": "uint256"
        },
        {
          "name": "",
          "type": "uint256"
        },
        {
          "name": "",
          "type": "bool"
        },
        {
          "name": "",
          "type": "uint256"
        },
        {
          "name": "",
          "type": "uint256"
        },
        {
          "name": "",
          "type": "uint256"
        },
        {
          "name": "",
          "type": "uint256"
        }
      ],
      "payable": false,
      "stateMutability": "view",
      "type": "function"
    },
    {
      "constant": false,
      "inputs": [
        {
          "name": "_token_id",
          "type": "uint256"
        }
      ],
      "name": "withdraw",
      "outputs": [],
      "payable": false,
      "stateMutability": "nonpayable",
      "type": "function"
    },
    {
      "constant": false,
      "inputs": [
        {
          "name": "_token_id",
          "type": "uint256"
        },
        {
          "name": "_price",
          "type": "uint256"
        }
      ],
      "name": "sell",
      "outputs": [],
      "payable": false,
      "stateMutability": "nonpayable",
      "type": "function"
    },
    {
      "constant": false,
      "inputs": [
        {
          "name": "_token_id",
          "type": "uint256"
        }
      ],
      "name": "buy",
      "outputs": [],
      "payable": false,
      "stateMutability": "nonpayable",
      "type": "function"
    },
    {
      "constant": false,
      "inputs": [
        {
          "name": "_token",
          "type": "address"
        },
        {
          "name": "_provider",
          "type": "address"
        },
        {
          "name": "_time_uint",
          "type": "uint256"
        },
        {
          "name": "_tokens_per_time_unit",
          "type": "uint256"
        },
        {
          "name": "_max_subscription_time",
          "type": "uint256"
        }
      ],
      "name": "createSubscription",
      "outputs": [
        {
          "name": "",
          "type": "uint256"
        }
      ],
      "payable": false,
      "stateMutability": "nonpayable",
      "type": "function"
    },
    {
      "constant": false,
      "inputs": [
        {
          "name": "_id",
          "type": "uint256"
        }
      ],
      "name": "cancelSubscription",
      "outputs": [
        {
          "name": "",
          "type": "bool"
        }
      ],
      "payable": false,
      "stateMutability": "nonpayable",
      "type": "function"
    },
    {
      "constant": false,
      "inputs": [
        {
          "name": "_id",
          "type": "uint256"
        }
      ],
      "name": "executeSubscription",
      "outputs": [
        {
          "name": "",
          "type": "bool"
        }
      ],
      "payable": false,
      "stateMutability": "nonpayable",
      "type": "function"
    },
    {
      "constant": true,
      "inputs": [
        {
          "name": "_id",
          "type": "uint256"
        }
      ],
      "name": "getSubscriptionAmount",
      "outputs": [
        {
          "name": "",
          "type": "uint256"
        }
      ],
      "payable": false,
      "stateMutability": "view",
      "type": "function"
    },
    {
      "constant": true,
      "inputs": [
        {
          "name": "_id",
          "type": "uint256"
        },
        {
          "name": "_date",
          "type": "uint256"
        }
      ],
      "name": "getSubscriptionAmountForDate",
      "outputs": [
        {
          "name": "",
          "type": "uint256"
        }
      ],
      "payable": false,
      "stateMutability": "view",
      "type": "function"
    },
    {
      "constant": true,
      "inputs": [
        {
          "name": "_client",
          "type": "address"
        }
      ],
      "name": "getClientSubscriptionCount",
      "outputs": [
        {
          "name": "",
          "type": "uint256"
        }
      ],
      "payable": false,
      "stateMutability": "view",
      "type": "function"
    },
    {
      "constant": true,
      "inputs": [
        {
          "name": "_client",
          "type": "address"
        },
        {
          "name": "_index",
          "type": "uint256"
        }
      ],
      "name": "getClientSubscription",
      "outputs": [
        {
          "name": "",
          "type": "uint256"
        },
        {
          "name": "",
          "type": "address"
        },
        {
          "name": "",
          "type": "address"
        },
        {
          "name": "",
          "type": "address"
        },
        {
          "name": "",
          "type": "uint256"
        },
        {
          "name": "",
          "type": "uint256"
        },
        {
          "name": "",
          "type": "uint256"
        },
        {
          "name": "",
          "type": "bool"
        },
        {
          "name": "",
          "type": "uint256"
        },
        {
          "name": "",
          "type": "uint256"
        },
        {
          "name": "",
          "type": "uint256"
        }
      ],
      "payable": false,
      "stateMutability": "view",
      "type": "function"
    },
    {
      "constant": true,
      "inputs": [
        {
          "name": "_provider",
          "type": "address"
        }
      ],
      "name": "getProviderSubscriptionCount",
      "outputs": [
        {
          "name": "",
          "type": "uint256"
        }
      ],
      "payable": false,
      "stateMutability": "view",
      "type": "function"
    },
    {
      "constant": true,
      "inputs": [
        {
          "name": "_provider",
          "type": "address"
        },
        {
          "name": "_index",
          "type": "uint256"
        }
      ],
      "name": "getProviderSubscription",
      "outputs": [
        {
          "name": "",
          "type": "uint256"
        },
        {
          "name": "",
          "type": "address"
        },
        {
          "name": "",
          "type": "address"
        },
        {
          "name": "",
          "type": "address"
        },
        {
          "name": "",
          "type": "uint256"
        },
        {
          "name": "",
          "type": "uint256"
        },
        {
          "name": "",
          "type": "uint256"
        },
        {
          "name": "",
          "type": "bool"
        },
        {
          "name": "",
          "type": "uint256"
        },
        {
          "name": "",
          "type": "uint256"
        },
        {
          "name": "",
          "type": "uint256"
        }
      ],
      "payable": false,
      "stateMutability": "view",
      "type": "function"
    }
  ],
  "bytecode": "0x608060405234801561001057600080fd5b5061290b806100206000396000f3fe608060405234801561001057600080fd5b50600436106101215760003560e01c8063a59a5c8a116100ad578063d96a094a11610071578063d96a094a146106b5578063e8903656146106e3578063e9cab87e14610729578063f268f53e146107bf578063ffe4e4531461081757610121565b8063a59a5c8a1461056b578063ae42bb79146105ad578063b3109fa5146105ef578063bc92cdd21461063b578063d79875eb1461067d57610121565b80633e5cb96f116100f45780633e5cb96f146102ff57806342de4947146103575780636352211e1461037557806370a08231146103e3578063876bebbb1461043b57610121565b8063095ea7b3146101265780631065db6814610174578063212350831461028b5780632e1a7d4d146102d1575b600080fd5b6101726004803603604081101561013c57600080fd5b81019080803573ffffffffffffffffffffffffffffffffffffffff16906020019092919080359060200190929190505050610947565b005b6101a06004803603602081101561018a57600080fd5b81019080803590602001909291905050506109dd565b604051808d81526020018c73ffffffffffffffffffffffffffffffffffffffff1673ffffffffffffffffffffffffffffffffffffffff1681526020018b73ffffffffffffffffffffffffffffffffffffffff1673ffffffffffffffffffffffffffffffffffffffff1681526020018a73ffffffffffffffffffffffffffffffffffffffff1673ffffffffffffffffffffffffffffffffffffffff168152602001898152602001888152602001878152602001861515151581526020018581526020018481526020018381526020018281526020019c5050505050505050505050505060405180910390f35b6102b7600480360360208110156102a157600080fd5b8101908080359060200190929190505050610c2f565b604051808215151515815260200191505060405180910390f35b6102fd600480360360208110156102e757600080fd5b8101908080359060200190929190505050610eea565b005b6103416004803603602081101561031557600080fd5b81019080803573ffffffffffffffffffffffffffffffffffffffff169060200190929190505050610f44565b6040518082815260200191505060405180910390f35b61035f610f90565b6040518082815260200191505060405180910390f35b6103a16004803603602081101561038b57600080fd5b8101908080359060200190929190505050610f9d565b604051808273ffffffffffffffffffffffffffffffffffffffff1673ffffffffffffffffffffffffffffffffffffffff16815260200191505060405180910390f35b610425600480360360208110156103f957600080fd5b81019080803573ffffffffffffffffffffffffffffffffffffffff169060200190929190505050610fdc565b6040518082815260200191505060405180910390f35b6104876004803603604081101561045157600080fd5b81019080803573ffffffffffffffffffffffffffffffffffffffff16906020019092919080359060200190929190505050611028565b604051808c81526020018b73ffffffffffffffffffffffffffffffffffffffff1673ffffffffffffffffffffffffffffffffffffffff1681526020018a73ffffffffffffffffffffffffffffffffffffffff1673ffffffffffffffffffffffffffffffffffffffff1681526020018973ffffffffffffffffffffffffffffffffffffffff1673ffffffffffffffffffffffffffffffffffffffff168152602001888152602001878152602001868152602001851515151581526020018481526020018381526020018281526020019b50505050505050505050505060405180910390f35b6105976004803603602081101561058157600080fd5b8101908080359060200190929190505050611287565b6040518082815260200191505060405180910390f35b6105d9600480360360208110156105c357600080fd5b81019080803590602001909291905050506112a4565b6040518082815260200191505060405180910390f35b6106256004803603604081101561060557600080fd5b8101908080359060200190929190803590602001909291905050506112c1565b6040518082815260200191505060405180910390f35b6106676004803603602081101561065157600080fd5b81019080803590602001909291905050506113b1565b6040518082815260200191505060405180910390f35b6106b36004803603604081101561069357600080fd5b8101908080359060200190929190803590602001909291905050506113c4565b005b6106e1600480360360208110156106cb57600080fd5b81019080803590602001909291905050506114b9565b005b61070f600480360360208110156106f957600080fd5b81019080803590602001909291905050506117ae565b604051808215151515815260200191505060405180910390f35b6107a9600480360360a081101561073f57600080fd5b81019080803573ffffffffffffffffffffffffffffffffffffffff169060200190929190803573ffffffffffffffffffffffffffffffffffffffff169060200190929190803590602001909291908035906020019092919080359060200190929190505050611b17565b6040518082815260200191505060405180910390f35b610801600480360360208110156107d557600080fd5b81019080803573ffffffffffffffffffffffffffffffffffffffff1690602001909291905050506120fb565b6040518082815260200191505060405180910390f35b6108636004803603604081101561082d57600080fd5b81019080803573ffffffffffffffffffffffffffffffffffffffff16906020019092919080359060200190929190505050612147565b604051808c81526020018b73ffffffffffffffffffffffffffffffffffffffff1673ffffffffffffffffffffffffffffffffffffffff1681526020018a73ffffffffffffffffffffffffffffffffffffffff1673ffffffffffffffffffffffffffffffffffffffff1681526020018973ffffffffffffffffffffffffffffffffffffffff1673ffffffffffffffffffffffffffffffffffffffff168152602001888152602001878152602001868152602001851515151581526020018481526020018381526020018281526020019b50505050505050505050505060405180910390f35b3373ffffffffffffffffffffffffffffffffffffffff1661096782610f9d565b73ffffffffffffffffffffffffffffffffffffffff161461098757600080fd5b816003600083815260200190815260200160002060006101000a81548173ffffffffffffffffffffffffffffffffffffffff021916908373ffffffffffffffffffffffffffffffffffffffff1602179055505050565b6000806000806000806000806000806000806000600560008f8152602001908152602001600020549050600060048281548110610a1657fe5b90600052602060002001549050610a2b6127f7565b600080838152602001908152602001600020604051806101400160405290816000820160009054906101000a900473ffffffffffffffffffffffffffffffffffffffff1673ffffffffffffffffffffffffffffffffffffffff1673ffffffffffffffffffffffffffffffffffffffff1681526020016001820160009054906101000a900473ffffffffffffffffffffffffffffffffffffffff1673ffffffffffffffffffffffffffffffffffffffff1673ffffffffffffffffffffffffffffffffffffffff1681526020016002820160009054906101000a900473ffffffffffffffffffffffffffffffffffffffff1673ffffffffffffffffffffffffffffffffffffffff1673ffffffffffffffffffffffffffffffffffffffff1681526020016003820154815260200160048201548152602001600582015481526020016006820154815260200160078201548152602001600882015481526020016009820160009054906101000a900460ff16151515158152505090506000809050816101200151610bbf57610bbc836113b1565b90505b82826000015183602001518460400151856060015186608001518760a00151886101200151888a60c00151600660008e8152602001908152602001600020548c61010001519f509f509f509f509f509f509f509f509f509f509f509f505050505091939597999b5091939597999b565b60003373ffffffffffffffffffffffffffffffffffffffff1660008084815260200190815260200160002060000160009054906101000a900473ffffffffffffffffffffffffffffffffffffffff1673ffffffffffffffffffffffffffffffffffffffff1614610c9e57600080fd5b6000151560008084815260200190815260200160002060090160009054906101000a900460ff16151514610cd157600080fd5b610cda826117ae565b50600160008084815260200190815260200160002060090160006101000a81548160ff021916908315150217905550600080600084815260200190815260200160002060010160009054906101000a900473ffffffffffffffffffffffffffffffffffffffff1690508073ffffffffffffffffffffffffffffffffffffffff1663a9059cbb60008086815260200190815260200160002060000160009054906101000a900473ffffffffffffffffffffffffffffffffffffffff16600080878152602001908152602001600020600801546040518363ffffffff1660e01b8152600401808373ffffffffffffffffffffffffffffffffffffffff1673ffffffffffffffffffffffffffffffffffffffff16815260200182815260200192505050602060405180830381600087803b158015610e1457600080fd5b505af1158015610e28573d6000803e3d6000fd5b505050506040513d6020811015610e3e57600080fd5b81019080805190602001909291905050505060008084815260200190815260200160002060020160009054906101000a900473ffffffffffffffffffffffffffffffffffffffff1673ffffffffffffffffffffffffffffffffffffffff163373ffffffffffffffffffffffffffffffffffffffff16847fd8777ff58861e451b8c55f3289c70375ce56d653cdc5a2e1b89502ad69bdd40f60405160405180910390a46001915050919050565b6000811415610ef857600080fd5b3373ffffffffffffffffffffffffffffffffffffffff16610f1882610f9d565b73ffffffffffffffffffffffffffffffffffffffff1614610f3857600080fd5b610f41816123a6565b50565b6000600160008373ffffffffffffffffffffffffffffffffffffffff1673ffffffffffffffffffffffffffffffffffffffff168152602001908152602001600020805490509050919050565b6000600480549050905090565b600080600083815260200190815260200160002060020160009054906101000a900473ffffffffffffffffffffffffffffffffffffffff169050919050565b6000600260008373ffffffffffffffffffffffffffffffffffffffff1673ffffffffffffffffffffffffffffffffffffffff168152602001908152602001600020805490509050919050565b600080600080600080600080600080600080600260008f73ffffffffffffffffffffffffffffffffffffffff1673ffffffffffffffffffffffffffffffffffffffff1681526020019081526020016000208d8154811061108457fe5b906000526020600020015490506110996127f7565b600080838152602001908152602001600020604051806101400160405290816000820160009054906101000a900473ffffffffffffffffffffffffffffffffffffffff1673ffffffffffffffffffffffffffffffffffffffff1673ffffffffffffffffffffffffffffffffffffffff1681526020016001820160009054906101000a900473ffffffffffffffffffffffffffffffffffffffff1673ffffffffffffffffffffffffffffffffffffffff1673ffffffffffffffffffffffffffffffffffffffff1681526020016002820160009054906101000a900473ffffffffffffffffffffffffffffffffffffffff1673ffffffffffffffffffffffffffffffffffffffff1673ffffffffffffffffffffffffffffffffffffffff1681526020016003820154815260200160048201548152602001600582015481526020016006820154815260200160078201548152602001600882015481526020016009820160009054906101000a900460ff1615151515815250509050600080905081610120015161122d5761122a836113b1565b90505b82826000015183602001518460400151856060015186608001518760a00151886101200151888a60c001518b61010001519d509d509d509d509d509d509d509d509d509d509d505050509295989b509295989b9093969950565b600060056000838152602001908152602001600020549050919050565b600060066000838152602001908152602001600020549050919050565b60008060008481526020019081526020016000206005015482116112e457600080fd5b6000151560008085815260200190815260200160002060090160009054906101000a900460ff1615151461131757600080fd5b60008060008581526020019081526020016000206003015490506000806000868152602001908152602001600020600401549050600080600087815260200190815260200160002060050154905060008060008881526020019081526020016000206008015490506000848388038161138c57fe5b04905060008482029050828111156113a2578290505b80965050505050505092915050565b60006113bd82426112c1565b9050919050565b60008214156113d257600080fd5b60008114156113e057600080fd5b6001151560008084815260200190815260200160002060090160009054906101000a900460ff161515141561141457600080fd5b3373ffffffffffffffffffffffffffffffffffffffff1661143483610f9d565b73ffffffffffffffffffffffffffffffffffffffff161461145457600080fd5b806006600084815260200190815260200160002081905550600480549050600560008481526020019081526020016000208190555060048290806001815401808255809150509060018203906000526020600020016000909192909190915055505050565b60008114156114c757600080fd5b3373ffffffffffffffffffffffffffffffffffffffff166114e782610f9d565b73ffffffffffffffffffffffffffffffffffffffff16141561150857600080fd5b611511816117ae565b50600080600083815260200190815260200160002060010160009054906101000a900473ffffffffffffffffffffffffffffffffffffffff1690508073ffffffffffffffffffffffffffffffffffffffff166323b872dd333060066000878152602001908152602001600020546040518463ffffffff1660e01b8152600401808473ffffffffffffffffffffffffffffffffffffffff1673ffffffffffffffffffffffffffffffffffffffff1681526020018373ffffffffffffffffffffffffffffffffffffffff1673ffffffffffffffffffffffffffffffffffffffff1681526020018281526020019350505050602060405180830381600087803b15801561161a57600080fd5b505af115801561162e573d6000803e3d6000fd5b505050506040513d602081101561164457600080fd5b8101908080519060200190929190505050508073ffffffffffffffffffffffffffffffffffffffff1663a9059cbb60008085815260200190815260200160002060020160009054906101000a900473ffffffffffffffffffffffffffffffffffffffff1660066000868152602001908152602001600020546040518363ffffffff1660e01b8152600401808373ffffffffffffffffffffffffffffffffffffffff1673ffffffffffffffffffffffffffffffffffffffff16815260200182815260200192505050602060405180830381600087803b15801561172557600080fd5b505af1158015611739573d6000803e3d6000fd5b505050506040513d602081101561174f57600080fd5b8101908080519060200190929190505050506117a160008084815260200190815260200160002060020160009054906101000a900473ffffffffffffffffffffffffffffffffffffffff163384612464565b6117aa826123a6565b5050565b600080151560008084815260200190815260200160002060090160009054906101000a900460ff161515146117e257600080fd5b60006117ed836113b1565b90504260008085815260200190815260200160002060050181905550600080600085815260200190815260200160002060010160009054906101000a900473ffffffffffffffffffffffffffffffffffffffff1690508073ffffffffffffffffffffffffffffffffffffffff1663a9059cbb60008087815260200190815260200160002060020160009054906101000a900473ffffffffffffffffffffffffffffffffffffffff16846040518363ffffffff1660e01b8152600401808373ffffffffffffffffffffffffffffffffffffffff1673ffffffffffffffffffffffffffffffffffffffff16815260200182815260200192505050602060405180830381600087803b1580156118ff57600080fd5b505af1158015611913573d6000803e3d6000fd5b505050506040513d602081101561192957600080fd5b81019080805190602001909291905050505081600080868152602001908152602001600020600801540360008086815260200190815260200160002060080181905550426000808681526020019081526020016000206005018190555060008060008681526020019081526020016000206008015414156119d357600160008086815260200190815260200160002060090160006101000a81548160ff0219169083151502179055505b60008085815260200190815260200160002060020160009054906101000a900473ffffffffffffffffffffffffffffffffffffffff1673ffffffffffffffffffffffffffffffffffffffff1660008086815260200190815260200160002060000160009054906101000a900473ffffffffffffffffffffffffffffffffffffffff1673ffffffffffffffffffffffffffffffffffffffff16857f1d22266268ccdbcbd3d0f9d997063fade0c22b17f4db749eb9d743c54eaabe7b60008089815260200190815260200160002060010160009054906101000a900473ffffffffffffffffffffffffffffffffffffffff1686604051808373ffffffffffffffffffffffffffffffffffffffff1673ffffffffffffffffffffffffffffffffffffffff1681526020018281526020019250505060405180910390a4600192505050919050565b60008073ffffffffffffffffffffffffffffffffffffffff168673ffffffffffffffffffffffffffffffffffffffff161415611b5257600080fd5b600073ffffffffffffffffffffffffffffffffffffffff168573ffffffffffffffffffffffffffffffffffffffff161415611b8c57600080fd5b60008411611b9957600080fd5b60008311611ba657600080fd5b60008211611bb357600080fd5b6000828402905060008790508073ffffffffffffffffffffffffffffffffffffffff166323b872dd3330856040518463ffffffff1660e01b8152600401808473ffffffffffffffffffffffffffffffffffffffff1673ffffffffffffffffffffffffffffffffffffffff1681526020018373ffffffffffffffffffffffffffffffffffffffff1673ffffffffffffffffffffffffffffffffffffffff1681526020018281526020019350505050602060405180830381600087803b158015611c7a57600080fd5b505af1158015611c8e573d6000803e3d6000fd5b505050506040513d6020811015611ca457600080fd5b8101908080519060200190929190505050506000338989898942604051602001808773ffffffffffffffffffffffffffffffffffffffff1673ffffffffffffffffffffffffffffffffffffffff1660601b81526014018673ffffffffffffffffffffffffffffffffffffffff1673ffffffffffffffffffffffffffffffffffffffff1660601b81526014018573ffffffffffffffffffffffffffffffffffffffff1673ffffffffffffffffffffffffffffffffffffffff1660601b815260140184815260200183815260200182815260200196505050505050506040516020818303038152906040528051906020012060001c9050611da16127f7565b6040518061014001604052803373ffffffffffffffffffffffffffffffffffffffff1681526020018b73ffffffffffffffffffffffffffffffffffffffff1681526020018a73ffffffffffffffffffffffffffffffffffffffff1681526020018981526020018881526020014281526020018781526020014281526020018581526020016000151581525090508060008084815260200190815260200160002060008201518160000160006101000a81548173ffffffffffffffffffffffffffffffffffffffff021916908373ffffffffffffffffffffffffffffffffffffffff16021790555060208201518160010160006101000a81548173ffffffffffffffffffffffffffffffffffffffff021916908373ffffffffffffffffffffffffffffffffffffffff16021790555060408201518160020160006101000a81548173ffffffffffffffffffffffffffffffffffffffff021916908373ffffffffffffffffffffffffffffffffffffffff160217905550606082015181600301556080820151816004015560a0820151816005015560c0820151816006015560e0820151816007015561010082015181600801556101208201518160090160006101000a81548160ff021916908315150217905550905050600160003373ffffffffffffffffffffffffffffffffffffffff1673ffffffffffffffffffffffffffffffffffffffff168152602001908152602001600020829080600181540180825580915050906001820390600052602060002001600090919290919091505550600260008a73ffffffffffffffffffffffffffffffffffffffff1673ffffffffffffffffffffffffffffffffffffffff1681526020019081526020016000208290806001815401808255809150509060018203906000526020600020016000909192909190915055508873ffffffffffffffffffffffffffffffffffffffff163373ffffffffffffffffffffffffffffffffffffffff16837fd94e5fbe6928a31aa9aa5a1de552ab44edb68e259c00d305a19e6408dddc3c618d8c8c604051808473ffffffffffffffffffffffffffffffffffffffff1673ffffffffffffffffffffffffffffffffffffffff168152602001838152602001828152602001935050505060405180910390a48194505050505095945050505050565b6000600260008373ffffffffffffffffffffffffffffffffffffffff1673ffffffffffffffffffffffffffffffffffffffff168152602001908152602001600020805490509050919050565b600080600080600080600080600080600080600160008f73ffffffffffffffffffffffffffffffffffffffff1673ffffffffffffffffffffffffffffffffffffffff1681526020019081526020016000208d815481106121a357fe5b906000526020600020015490506121b86127f7565b600080838152602001908152602001600020604051806101400160405290816000820160009054906101000a900473ffffffffffffffffffffffffffffffffffffffff1673ffffffffffffffffffffffffffffffffffffffff1673ffffffffffffffffffffffffffffffffffffffff1681526020016001820160009054906101000a900473ffffffffffffffffffffffffffffffffffffffff1673ffffffffffffffffffffffffffffffffffffffff1673ffffffffffffffffffffffffffffffffffffffff1681526020016002820160009054906101000a900473ffffffffffffffffffffffffffffffffffffffff1673ffffffffffffffffffffffffffffffffffffffff1673ffffffffffffffffffffffffffffffffffffffff1681526020016003820154815260200160048201548152602001600582015481526020016006820154815260200160078201548152602001600882015481526020016009820160009054906101000a900460ff1615151515815250509050600080905081610120015161234c57612349836113b1565b90505b82826000015183602001518460400151856060015186608001518760a00151886101200151888a60c001518b61010001519d509d509d509d509d509d509d509d509d509d509d505050509295989b509295989b9093969950565b6000600560008381526020019081526020016000205490506004600160048054905003815481106123d357fe5b9060005260206000200154600482815481106123eb57fe5b906000526020600020018190555060046001600480549050038154811061240e57fe5b906000526020600020016000905560056000838152602001908152602001600020600090556006600083815260200190815260200160002060009055600480548091906001900361245f919061288e565b505050565b8273ffffffffffffffffffffffffffffffffffffffff168273ffffffffffffffffffffffffffffffffffffffff16141561249d57600080fd5b600073ffffffffffffffffffffffffffffffffffffffff168273ffffffffffffffffffffffffffffffffffffffff1614156124d757600080fd5b600080600083815260200190815260200160002060020160009054906101000a900473ffffffffffffffffffffffffffffffffffffffff1690506000600260008373ffffffffffffffffffffffffffffffffffffffff1673ffffffffffffffffffffffffffffffffffffffff16815260200190815260200160002080549050905060008090505b818110156127325783600260008573ffffffffffffffffffffffffffffffffffffffff1673ffffffffffffffffffffffffffffffffffffffff16815260200190815260200160002082815481106125b157fe5b9060005260206000200154141561272557600260008473ffffffffffffffffffffffffffffffffffffffff1673ffffffffffffffffffffffffffffffffffffffff168152602001908152602001600020600183038154811061260f57fe5b9060005260206000200154600260008573ffffffffffffffffffffffffffffffffffffffff1673ffffffffffffffffffffffffffffffffffffffff168152602001908152602001600020828154811061266457fe5b9060005260206000200181905550600260008473ffffffffffffffffffffffffffffffffffffffff1673ffffffffffffffffffffffffffffffffffffffff16815260200190815260200160002060018303815481106126bf57fe5b9060005260206000200160009055600260008473ffffffffffffffffffffffffffffffffffffffff1673ffffffffffffffffffffffffffffffffffffffff16815260200190815260200160002080548091906001900361271f919061288e565b50612732565b808060010191505061255e565b508360008085815260200190815260200160002060020160006101000a81548173ffffffffffffffffffffffffffffffffffffffff021916908373ffffffffffffffffffffffffffffffffffffffff160217905550600260008573ffffffffffffffffffffffffffffffffffffffff1673ffffffffffffffffffffffffffffffffffffffff1681526020019081526020016000208390806001815401808255809150509060018203906000526020600020016000909192909190915055505050505050565b604051806101400160405280600073ffffffffffffffffffffffffffffffffffffffff168152602001600073ffffffffffffffffffffffffffffffffffffffff168152602001600073ffffffffffffffffffffffffffffffffffffffff1681526020016000815260200160008152602001600081526020016000815260200160008152602001600081526020016000151581525090565b8154818355818111156128b5578183600052602060002091820191016128b491906128ba565b5b505050565b6128dc91905b808211156128d85760008160009055506001016128c0565b5090565b9056fea165627a7a723058201e3677970fa55c946717562a11a1d7a0c1a6461da3b11cb87e40c88b01e85e9f0029",
  "source": "pragma solidity ^0.5.0;\n\nimport \"./IERC20.sol\";\n\ncontract Subscriptions {\n    \n    /// Describes subscription\n    struct Subscription {\n        /// subscription client\n        address client;\n        \n        /// defines the token contract which payments are paid from.\n        address token;\n        \n        /// the address of the provider\n        address provider;\n        \n        /// the number of seconds per time unit\n        uint256 time_unit;\n        \n        ///  the number of tokens that can be paid towards the subscription per time_unit;\n        uint256 tokens_per_time_unit;\n        \n        /// the timestamp when the last payment was made\n        uint256 last_payment_at;\n        \n        /// max subscription time\n        uint256 max_subscription_time;\n        \n        /// when we started our subscription\n        uint256 subscription_time;\n        \n        /// total amount in subscription\n        uint256 amount;\n        \n        /// if the subscription has been cancelled\n        bool canceled;\n    }\n    \n    /// Event that a new subscription was created\n    event SubsctiptionCreated(\n        uint256 indexed _id,\n        address indexed _client,\n        address indexed _provider,\n        address _token,\n        uint256 _time_unit,\n        uint256 _tokens_per_time_unit\n    );\n    \n    /// Event that a new subscription was canceled\n    event SubsctiptionCanceled(\n        uint256 indexed _id,\n        address indexed _client,\n        address indexed _provider\n    );\n    \n    /// Event that a subscription was payed\n    event SubscriptionPayed(\n        uint256 indexed _id,\n        address indexed _client,\n        address indexed _provider,\n        address _token,\n        uint256 _amount\n    );\n    \n    /// All subscriptions in a system\n    mapping(uint256 => Subscription) subscriptions;\n    \n    /// Subscriptions of concrete user\n    mapping(address => uint256[]) clients;\n    \n    /// Subscriptions of concrete provider\n    mapping(address => uint256[]) providers;\n    \n    /// Approval mapping for selling\n    mapping(uint256 => address) approvals;\n    \n    /// List of subscriptions on sale\n    uint256[] selling;\n    \n    /// Mapping of selling items index\n    mapping(uint256 => uint256) selling_index;\n    \n    /// Mapping of selling item to price\n    mapping(uint256 => uint256) selling_price;\n    \n    /// This part implements part of ERC721 Token standard for subscriptions\n    /// -=-=-=-=-=-=-=-=-=-=-=-=-=-=-=-=-=-=-=-=-=-=-=-=-=-=-=-=-=-=-=-=-=-=-=-=-=-\n    /// Part of ERC721 API. \n    function balanceOf(address _owner) public view returns (uint256) {\n        return providers[_owner].length;\n    }\n    \n    function ownerOf(uint256 _tokenId) public view returns (address) {\n        return subscriptions[_tokenId].provider;\n    }\n    \n    function transferFrom(\n        address _from, \n        address _to, \n        uint256 _tokenId\n    ) private {\n        require(_to != _from);\n        require(_to != address(0));\n        \n        address provider = subscriptions[_tokenId].provider;\n        uint256 arrayLength = providers[provider].length;\n        for (uint256 i=0; i<arrayLength; i++) {\n            // TODO: Get rid of cycle dut to performance reasons\n            if (providers[provider][i] == _tokenId) {\n                providers[provider][i] = providers[provider][arrayLength - 1];\n                delete providers[provider][arrayLength - 1];\n                providers[provider].length--;\n                \n                break;\n            }  \n        }\n\n        subscriptions[_tokenId].provider = _to;\n        providers[_to].push(_tokenId);\n    }\n    \n    function approve(\n            address _to, \n            uint256 _tokenId\n        ) public {\n        \n        require(ownerOf(_tokenId) == msg.sender);\n        approvals[_tokenId] = _to;\n    }\n    /// -=-=-=-=-=-=-=-=-=-=-=-=-=-=-=-=-=-=-=-=-=-=-=-=-=-=-=-=-=-=-=-=-=-=-=-=-=-\n    /// End of ERC721 Tiken standard\n    \n\n    function sellingIndex(uint256 _token_id) public view returns (uint256) {\n        return selling_index[_token_id];\n    }\n    \n    function sellingPrice(uint256 _token_id) public view returns (uint256) {\n        return selling_price[_token_id];\n    }\n    \n    function sellingCount() public view returns (uint256) {\n        return selling.length;\n    }\n    \n    function getSellingSubscription(\n        uint256 _index\n    ) public view returns \n    (\n        uint256,\n        address,\n        address,\n        address,\n        uint256,\n        uint256,\n        uint256,\n        bool,\n        uint256,\n        uint256,\n        uint256,\n        uint256\n    ) {\n        uint256 index = selling_index[_index];\n        uint256 id = selling[index];\n        Subscription memory subscription = subscriptions[id];\n        uint256 amount = 0;\n        if (!subscription.canceled) {\n            amount = getSubscriptionAmount(id);\n        }\n        return (\n            id,\n            subscription.client,\n            subscription.token,\n            subscription.provider,\n            subscription.time_unit,\n            subscription.tokens_per_time_unit,\n            subscription.last_payment_at,\n            subscription.canceled,\n            amount,\n            subscription.max_subscription_time,\n            selling_price[id],\n            subscription.amount\n        );\n    }\n\n    function removeFromSale(uint256 _token_id) internal {\n        uint256 index = selling_index[_token_id];\n        selling[index] = selling[selling.length - 1];\n        \n        delete selling[selling.length - 1];\n        delete selling_index[_token_id];\n        delete selling_price[_token_id];\n        \n        selling.length--;\n    }\n\n    function withdraw(\n        uint256 _token_id\n    ) public {\n        require(_token_id != 0);\n        require(ownerOf(_token_id) == msg.sender);\n\n        removeFromSale(_token_id);\n    }\n    \n    function sell(uint256 _token_id, uint256 _price) public {\n        require(_token_id != 0);\n        require(_price != 0);\n        require(subscriptions[_token_id].canceled != true);\n        require(ownerOf(_token_id) == msg.sender);\n        \n        selling_price[_token_id] = _price;\n        selling_index[_token_id] = selling.length;\n        selling.push(_token_id);\n    }\n    \n    function buy(uint256 _token_id) public {\n        require(_token_id != 0);\n        require(ownerOf(_token_id) != msg.sender);\n\n        executeSubscription(_token_id);\n\n        IERC20 token = IERC20(subscriptions[_token_id].token);\n        token.transferFrom(\n            msg.sender,\n            address(this),\n            selling_price[_token_id]\n        );\n        \n        token.transfer(subscriptions[_token_id].provider, selling_price[_token_id]);\n        \n        transferFrom(\n            subscriptions[_token_id].provider,\n            msg.sender,\n            _token_id\n        );\n\n        removeFromSale(_token_id);\n    }\n    \n    /// Creates new subscription\n    function createSubscription(\n        address _token, \n        address _provider,\n        uint256 _time_uint,\n        uint256 _tokens_per_time_unit,\n        uint256 _max_subscription_time\n    ) public returns (uint256) {\n        \n        // Checks on input data basic validity. Note, that \n        // there can be on-chain subscription terms registry\n        //\n        require(_token != address(0));\n        require(_provider != address(0));\n        require(_time_uint > 0);\n        require(_tokens_per_time_unit > 0);\n        require(_max_subscription_time > 0);\n        \n        uint256 amount = _tokens_per_time_unit * _max_subscription_time;\n        \n        // Accept payment right away\n        //\n        IERC20 token = IERC20(_token);\n        token.transferFrom(\n            msg.sender,\n            address(this),\n            amount\n        );\n        \n        uint256 id = uint256(keccak256(abi.encodePacked(\n            msg.sender,\n            _token,\n            _provider,\n            _time_uint,\n            _tokens_per_time_unit,\n            now\n        )));\n        \n        Subscription memory subscription = Subscription(\n            msg.sender,\n            _token,\n            _provider,\n            _time_uint,\n            _tokens_per_time_unit,\n            now,\n            _max_subscription_time,\n            now,\n            amount,\n            false\n        );\n        \n        subscriptions[id] = subscription;\n        clients[msg.sender].push(id);\n        providers[_provider].push(id);\n        \n        emit SubsctiptionCreated(\n            id,\n            msg.sender,\n            _provider,\n            _token,\n            _time_uint,\n            _tokens_per_time_unit\n        );\n        \n        return id;\n    }\n    \n    /// Cancels subscription\n    function cancelSubscription(\n        uint256 _id\n    ) public returns (bool) {\n        \n        require(subscriptions[_id].client == msg.sender);\n        require(subscriptions[_id].canceled == false);\n        \n        executeSubscription(_id);\n        \n        subscriptions[_id].canceled = true;\n        \n        IERC20 token = IERC20(subscriptions[_id].token);\n        token.transfer(subscriptions[_id].client, subscriptions[_id].amount);\n\n        emit SubsctiptionCanceled(\n            _id,\n            msg.sender,\n            subscriptions[_id].provider\n        );\n        \n        return true;\n    }\n    \n    /// Executes subscriptions\n    function executeSubscription(\n        uint256 _id\n    ) public returns (bool) {\n            \n        require(subscriptions[_id].canceled == false);\n        \n        uint256 amount = getSubscriptionAmount(_id);\n        \n        subscriptions[_id].last_payment_at = now;\n        \n        IERC20 token = IERC20(subscriptions[_id].token);\n        token.transfer(subscriptions[_id].provider, amount);\n        \n        subscriptions[_id].amount = subscriptions[_id].amount - amount;\n        subscriptions[_id].last_payment_at = now;\n        \n        if (subscriptions[_id].amount == 0) {\n            subscriptions[_id].canceled = true;\n        }\n        \n        emit SubscriptionPayed(\n            _id,\n            subscriptions[_id].client,\n            subscriptions[_id].provider,\n            subscriptions[_id].token,\n            amount\n        );\n        \n        return true;\n    }\n    \n    /// Computes how much provider can withdraw with conrete subscription\n    function getSubscriptionAmount(\n        uint256 _id\n    ) public view returns (uint256) {\n        \n        return getSubscriptionAmountForDate(_id, now);\n    }\n    \n        /// Computes how much provider can withdraw with conrete subscription\n    function getSubscriptionAmountForDate(\n        uint256 _id,\n        uint256 _date\n    ) public view returns (uint256) {\n        \n        require(_date > subscriptions[_id].last_payment_at);\n        require(subscriptions[_id].canceled == false);\n        \n        uint256 time_unit = subscriptions[_id].time_unit;\n        uint256 tokens_per_time_unit = subscriptions[_id].tokens_per_time_unit;\n        uint256 last_payment_at = subscriptions[_id].last_payment_at;\n        uint256 remaning = subscriptions[_id].amount;\n        \n        uint256 periods =  (_date - last_payment_at) / time_unit;\n        \n        uint256 amount = periods * tokens_per_time_unit;\n        if (amount > remaning) {\n            amount = remaning;\n        }\n        return amount;\n    }\n    \n    function getClientSubscriptionCount(\n        address _client\n    ) public view returns (uint256) {\n        return clients[_client].length;\n    }\n    \n    function getClientSubscription(\n        address _client,\n        uint256 _index\n    ) public view returns \n    (\n        uint256,\n        address,\n        address,\n        address,\n        uint256,\n        uint256,\n        uint256,\n        bool,\n        uint256,\n        uint256,\n        uint256\n    ) {\n        uint256 id = clients[_client][_index];\n        Subscription memory subscription = subscriptions[id];\n        uint256 amount = 0;\n        if (!subscription.canceled) {\n            amount = getSubscriptionAmount(id);\n        }\n        return (\n            id,\n            subscription.client,\n            subscription.token,\n            subscription.provider,\n            subscription.time_unit,\n            subscription.tokens_per_time_unit,\n            subscription.last_payment_at,\n            subscription.canceled,\n            amount,\n            subscription.max_subscription_time,\n            subscription.amount\n        );\n    }\n    \n    function getProviderSubscriptionCount(\n        address _provider\n    ) public view returns (uint256) {\n        return providers[_provider].length;\n    }\n    \n    function getProviderSubscription(\n        address _provider,\n        uint256 _index\n    ) public view returns \n    (\n        uint256,\n        address,\n        address,\n        address,\n        uint256,\n        uint256,\n        uint256,\n        bool,\n        uint256,\n        uint256,\n        uint256\n    ) {\n        uint256 id = providers[_provider][_index];\n        Subscription memory subscription = subscriptions[id];\n        uint256 amount = 0;\n        if (!subscription.canceled) {\n            amount = getSubscriptionAmount(id);\n        }\n        return (\n            id,\n            subscription.client,\n            subscription.token,\n            subscription.provider,\n            subscription.time_unit,\n            subscription.tokens_per_time_unit,\n            subscription.last_payment_at,\n            subscription.canceled,\n            amount,\n            subscription.max_subscription_time,\n            subscription.amount\n        );\n    }\n}\n",
  "sourcePath": "/Users/dvasin/dev/easyscribe/contracts/Subscriptions.sol",
  "compiler": {
    "name": "solc",
    "version": "0.5.8+commit.23d335f2.Emscripten.clang"
  },
  "schemaVersion": "3.0.16",
  "updatedAt": "2019-10-27T09:12:05.041Z",
  "devdoc": {
    "methods": {}
  },
  "userdoc": {
    "methods": {
      "balanceOf(address)": {
        "notice": "This part implements part of ERC721 Token standard for subscriptions -=-=-=-=-=-=-=-=-=-=-=-=-=-=-=-=-=-=-=-=-=-=-=-=-=-=-=-=-=-=-=-=-=-=-=-=-=- Part of ERC721 API. "
      },
      "cancelSubscription(uint256)": {
        "notice": "Cancels subscription"
      },
      "createSubscription(address,address,uint256,uint256,uint256)": {
        "notice": "Creates new subscription"
      },
      "executeSubscription(uint256)": {
        "notice": "Executes subscriptions"
      },
      "getSubscriptionAmount(uint256)": {
        "notice": "Computes how much provider can withdraw with conrete subscription"
      },
      "getSubscriptionAmountForDate(uint256,uint256)": {
        "notice": "Computes how much provider can withdraw with conrete subscription"
      },
      "sellingIndex(uint256)": {
        "notice": "-=-=-=-=-=-=-=-=-=-=-=-=-=-=-=-=-=-=-=-=-=-=-=-=-=-=-=-=-=-=-=-=-=-=-=-=-=- End of ERC721 Tiken standard"
      }
    }
  }
}