{
  "contractName": "Subscriptions",
  "abi": [
    {
      "anonymous": false,
      "inputs": [
        {
          "indexed": true,
          "name": "_id",
          "type": "bytes32"
        },
        {
          "indexed": true,
          "name": "_client",
          "type": "address"
        },
        {
          "indexed": true,
          "name": "_provider",
          "type": "address"
        },
        {
          "indexed": false,
          "name": "_token",
          "type": "address"
        },
        {
          "indexed": false,
          "name": "_time_unit",
          "type": "uint256"
        },
        {
          "indexed": false,
          "name": "_tokens_per_time_unit",
          "type": "uint256"
        }
      ],
      "name": "SubsctiptionCreated",
      "type": "event"
    },
    {
      "anonymous": false,
      "inputs": [
        {
          "indexed": true,
          "name": "_id",
          "type": "bytes32"
        },
        {
          "indexed": true,
          "name": "_client",
          "type": "address"
        },
        {
          "indexed": true,
          "name": "_provider",
          "type": "address"
        }
      ],
      "name": "SubsctiptionCanceled",
      "type": "event"
    },
    {
      "anonymous": false,
      "inputs": [
        {
          "indexed": true,
          "name": "_id",
          "type": "bytes32"
        },
        {
          "indexed": true,
          "name": "_client",
          "type": "address"
        },
        {
          "indexed": true,
          "name": "_provider",
          "type": "address"
        },
        {
          "indexed": false,
          "name": "_token",
          "type": "address"
        },
        {
          "indexed": false,
          "name": "_amount",
          "type": "uint256"
        }
      ],
      "name": "SubscriptionPayed",
      "type": "event"
    },
    {
      "constant": false,
      "inputs": [
        {
          "name": "_token",
          "type": "address"
        },
        {
          "name": "_provider",
          "type": "address"
        },
        {
          "name": "_time_uint",
          "type": "uint256"
        },
        {
          "name": "_tokens_per_time_unit",
          "type": "uint256"
        }
      ],
      "name": "createSubscription",
      "outputs": [
        {
          "name": "",
          "type": "bytes32"
        }
      ],
      "payable": false,
      "stateMutability": "nonpayable",
      "type": "function"
    },
    {
      "constant": false,
      "inputs": [
        {
          "name": "_id",
          "type": "bytes32"
        }
      ],
      "name": "cancelSubscription",
      "outputs": [
        {
          "name": "",
          "type": "bool"
        }
      ],
      "payable": false,
      "stateMutability": "nonpayable",
      "type": "function"
    },
    {
      "constant": false,
      "inputs": [
        {
          "name": "_id",
          "type": "bytes32"
        }
      ],
      "name": "executeSubscription",
      "outputs": [
        {
          "name": "",
          "type": "bool"
        }
      ],
      "payable": false,
      "stateMutability": "nonpayable",
      "type": "function"
    },
    {
      "constant": true,
      "inputs": [
        {
          "name": "_id",
          "type": "bytes32"
        }
      ],
      "name": "getSubscriptionAmount",
      "outputs": [
        {
          "name": "",
          "type": "uint256"
        }
      ],
      "payable": false,
      "stateMutability": "view",
      "type": "function"
    }
  ],
  "bytecode": "0x608060405234801561001057600080fd5b50610cf1806100206000396000f3fe608060405234801561001057600080fd5b506004361061004c5760003560e01c806319d7f5f41461005157806373138a7f146100975780638de8b900146100d9578063d21f1ffc14610165575b600080fd5b61007d6004803603602081101561006757600080fd5b81019080803590602001909291905050506101ab565b604051808215151515815260200191505060405180910390f35b6100c3600480360360208110156100ad57600080fd5b81019080803590602001909291905050506105a8565b6040518082815260200191505060405180910390f35b61014f600480360360808110156100ef57600080fd5b81019080803573ffffffffffffffffffffffffffffffffffffffff169060200190929190803573ffffffffffffffffffffffffffffffffffffffff1690602001909291908035906020019092919080359060200190929190505050610648565b6040518082815260200191505060405180910390f35b6101916004803603602081101561017b57600080fd5b8101908080359060200190929190505050610adb565b604051808215151515815260200191505060405180910390f35b600080151560008084815260200190815260200160002060060160009054906101000a900460ff161515146101df57600080fd5b60006101ea836105a8565b90504260008085815260200190815260200160002060050181905550600080600085815260200190815260200160002060010160009054906101000a900473ffffffffffffffffffffffffffffffffffffffff1690508073ffffffffffffffffffffffffffffffffffffffff166323b872dd60008087815260200190815260200160002060000160009054906101000a900473ffffffffffffffffffffffffffffffffffffffff1630856040518463ffffffff1660e01b8152600401808473ffffffffffffffffffffffffffffffffffffffff1673ffffffffffffffffffffffffffffffffffffffff1681526020018373ffffffffffffffffffffffffffffffffffffffff1673ffffffffffffffffffffffffffffffffffffffff1681526020018281526020019350505050602060405180830381600087803b15801561033057600080fd5b505af1158015610344573d6000803e3d6000fd5b505050506040513d602081101561035a57600080fd5b8101908080519060200190929190505050508073ffffffffffffffffffffffffffffffffffffffff1663a9059cbb60008087815260200190815260200160002060020160009054906101000a900473ffffffffffffffffffffffffffffffffffffffff16846040518363ffffffff1660e01b8152600401808373ffffffffffffffffffffffffffffffffffffffff1673ffffffffffffffffffffffffffffffffffffffff16815260200182815260200192505050602060405180830381600087803b15801561042857600080fd5b505af115801561043c573d6000803e3d6000fd5b505050506040513d602081101561045257600080fd5b81019080805190602001909291905050505060008085815260200190815260200160002060020160009054906101000a900473ffffffffffffffffffffffffffffffffffffffff1673ffffffffffffffffffffffffffffffffffffffff1660008086815260200190815260200160002060000160009054906101000a900473ffffffffffffffffffffffffffffffffffffffff1673ffffffffffffffffffffffffffffffffffffffff16857f4e4a619a5454597cf03d51842e2a7545f3ba895a64d2afab0030d766e5f6f5c860008089815260200190815260200160002060010160009054906101000a900473ffffffffffffffffffffffffffffffffffffffff1686604051808373ffffffffffffffffffffffffffffffffffffffff1673ffffffffffffffffffffffffffffffffffffffff1681526020018281526020019250505060405180910390a4600192505050919050565b600080151560008084815260200190815260200160002060060160009054906101000a900460ff161515146105dc57600080fd5b6000806000848152602001908152602001600020600301549050600080600085815260200190815260200160002060040154905060008060008681526020019081526020016000206005015490506000838242038161063757fe5b049050828102945050505050919050565b60008073ffffffffffffffffffffffffffffffffffffffff168573ffffffffffffffffffffffffffffffffffffffff16141561068357600080fd5b600073ffffffffffffffffffffffffffffffffffffffff168473ffffffffffffffffffffffffffffffffffffffff1614156106bd57600080fd5b600083116106ca57600080fd5b600082116106d757600080fd5b60003386868686604051602001808673ffffffffffffffffffffffffffffffffffffffff1673ffffffffffffffffffffffffffffffffffffffff1660601b81526014018573ffffffffffffffffffffffffffffffffffffffff1673ffffffffffffffffffffffffffffffffffffffff1660601b81526014018473ffffffffffffffffffffffffffffffffffffffff1673ffffffffffffffffffffffffffffffffffffffff1660601b8152601401838152602001828152602001955050505050506040516020818303038152906040528051906020012090506107b7610c44565b6040518060e001604052803373ffffffffffffffffffffffffffffffffffffffff1681526020018873ffffffffffffffffffffffffffffffffffffffff1681526020018773ffffffffffffffffffffffffffffffffffffffff1681526020018681526020018581526020014281526020016000151581525090508060008084815260200190815260200160002060008201518160000160006101000a81548173ffffffffffffffffffffffffffffffffffffffff021916908373ffffffffffffffffffffffffffffffffffffffff16021790555060208201518160010160006101000a81548173ffffffffffffffffffffffffffffffffffffffff021916908373ffffffffffffffffffffffffffffffffffffffff16021790555060408201518160020160006101000a81548173ffffffffffffffffffffffffffffffffffffffff021916908373ffffffffffffffffffffffffffffffffffffffff160217905550606082015181600301556080820151816004015560a0820151816005015560c08201518160060160006101000a81548160ff021916908315150217905550905050600160003373ffffffffffffffffffffffffffffffffffffffff1673ffffffffffffffffffffffffffffffffffffffff168152602001908152602001600020829080600181540180825580915050906001820390600052602060002001600090919290919091505550600260008773ffffffffffffffffffffffffffffffffffffffff1673ffffffffffffffffffffffffffffffffffffffff1681526020019081526020016000208290806001815401808255809150509060018203906000526020600020016000909192909190915055508573ffffffffffffffffffffffffffffffffffffffff163373ffffffffffffffffffffffffffffffffffffffff16837fc1f190f9fe628c345f8f73e8f617fb901af5f2d5ce12ac4eb5871974bbab2f598a8989604051808473ffffffffffffffffffffffffffffffffffffffff1673ffffffffffffffffffffffffffffffffffffffff168152602001838152602001828152602001935050505060405180910390a48192505050949350505050565b60003373ffffffffffffffffffffffffffffffffffffffff1660008084815260200190815260200160002060000160009054906101000a900473ffffffffffffffffffffffffffffffffffffffff1673ffffffffffffffffffffffffffffffffffffffff1614610b4a57600080fd5b6000151560008084815260200190815260200160002060060160009054906101000a900460ff16151514610b7d57600080fd5b600160008084815260200190815260200160002060060160006101000a81548160ff02191690831515021790555060008083815260200190815260200160002060020160009054906101000a900473ffffffffffffffffffffffffffffffffffffffff1673ffffffffffffffffffffffffffffffffffffffff163373ffffffffffffffffffffffffffffffffffffffff16837f936aa36ce1874a76cfca9fb477a4eee86c6085389585d6ce7e8ba78019d8d17360405160405180910390a460019050919050565b6040518060e00160405280600073ffffffffffffffffffffffffffffffffffffffff168152602001600073ffffffffffffffffffffffffffffffffffffffff168152602001600073ffffffffffffffffffffffffffffffffffffffff168152602001600081526020016000815260200160008152602001600015158152509056fea165627a7a723058201d7820d1046570ae9fb5af1916d6f2b2256a18e709e45a12196e1cd2ddf83c710029",
  "source": "pragma solidity ^0.5.0;\n\nimport \"./IERC20.sol\";\n\ncontract Subscriptions {\n    \n    /// Describes subscription\n    struct Subscription {\n        /// subscription client\n        address client;\n        \n        /// defines the token contract which payments are paid from.\n        address token;\n        \n        /// the address of the provider\n        address provider;\n        \n        /// the number of seconds per time unit\n        uint256 time_unit;\n        \n        ///  the number of tokens that can be paid towards the subscription per time_unit;\n        uint256 tokens_per_time_unit;\n        \n        /// the timestamp when the last payment was made\n        uint256 last_payment_at;\n        \n        /// if the subscription has been cancelled\n        bool canceled;\n    }\n    \n    /// Event that a new subscription was created\n    event SubsctiptionCreated(\n        bytes32 indexed _id,\n        address indexed _client,\n        address indexed _provider,\n        address _token,\n        uint256 _time_unit,\n        uint256 _tokens_per_time_unit\n    );\n    \n    /// Event that a new subscription was canceled\n    event SubsctiptionCanceled(\n        bytes32 indexed _id,\n        address indexed _client,\n        address indexed _provider\n    );\n    \n    /// Event that a subscription was payed\n    event SubscriptionPayed(\n        bytes32 indexed _id,\n        address indexed _client,\n        address indexed _provider,\n        address _token,\n        uint256 _amount\n    );\n    \n    /// All subscriptions in a system\n    mapping(bytes32 => Subscription) subscriptions;\n    \n    /// Subscriptions of concrete user\n    mapping(address => bytes32[]) clients;\n    \n    /// Subscriptions of concrete provider\n    mapping(address => bytes32[]) providers;\n    \n    /// Creates new subscription\n    function createSubscription(\n        address _token, \n        address _provider,\n        uint256 _time_uint,\n        uint256 _tokens_per_time_unit\n    ) public returns (bytes32) {\n        \n        // Checks on input data basic validity. Note, that \n        // there can be on-chain subscription terms registry\n        //\n        require(_token != address(0));\n        require(_provider != address(0));\n        require(_time_uint > 0);\n        require(_tokens_per_time_unit > 0);\n        \n        bytes32 id = keccak256(abi.encodePacked(\n            msg.sender,\n            _token,\n            _provider,\n            _time_uint,\n            _tokens_per_time_unit\n        ));\n        \n        Subscription memory subscription = Subscription(\n            msg.sender,\n            _token,\n            _provider,\n            _time_uint,\n            _tokens_per_time_unit,\n            now,\n            false\n        );\n        \n        subscriptions[id] = subscription;\n        clients[msg.sender].push(id);\n        providers[_provider].push(id);\n        \n        emit SubsctiptionCreated(\n            id,\n            msg.sender,\n            _provider,\n            _token,\n            _time_uint,\n            _tokens_per_time_unit\n        );\n        \n        return id;\n    }\n    \n    /// Cancels subscription\n    function cancelSubscription(\n        bytes32 _id\n    ) public returns (bool) {\n        \n        require(subscriptions[_id].client == msg.sender);\n        require(subscriptions[_id].canceled == false);\n        \n        subscriptions[_id].canceled = true;\n        \n        emit SubsctiptionCanceled(\n            _id,\n            msg.sender,\n            subscriptions[_id].provider\n        );\n        \n        return true;\n    }\n    \n    /// Executes subscriptions\n    function executeSubscription(\n        bytes32 _id\n    ) public returns (bool) {\n            \n        require(subscriptions[_id].canceled == false);\n        \n        uint256 amount = getSubscriptionAmount(_id);\n        \n        subscriptions[_id].last_payment_at = now;\n        \n        IERC20 token = IERC20(subscriptions[_id].token);\n        token.transferFrom(\n            subscriptions[_id].client,\n            address(this),\n            amount\n        );\n        \n        token.transfer(subscriptions[_id].provider, amount);\n        \n        emit SubscriptionPayed(\n            _id,\n            subscriptions[_id].client,\n            subscriptions[_id].provider,\n            subscriptions[_id].token,\n            amount\n        );\n        \n        return true;\n    }\n    \n    /// Computes how much provider can withdraw with conrete subscription\n    function getSubscriptionAmount(\n        bytes32 _id\n    ) public view returns (uint256) {\n        \n        require(subscriptions[_id].canceled == false);\n        \n        uint256 time_unit = subscriptions[_id].time_unit;\n        uint256 tokens_per_time_unit = subscriptions[_id].tokens_per_time_unit;\n        uint256 last_payment_at = subscriptions[_id].last_payment_at;\n        \n        uint256 periods = (now - last_payment_at) / time_unit;\n        \n        return periods * tokens_per_time_unit;\n    }\n}\n",
  "sourcePath": "/Users/dvasin/dev/easyscribe/contracts/Subscriptions.sol",
  "compiler": {
    "name": "solc",
    "version": "0.5.8+commit.23d335f2.Emscripten.clang"
  },
  "schemaVersion": "3.0.16",
  "updatedAt": "2019-10-26T12:38:49.291Z",
  "devdoc": {
    "methods": {}
  },
  "userdoc": {
    "methods": {
      "cancelSubscription(bytes32)": {
        "notice": "Cancels subscription"
      },
      "createSubscription(address,address,uint256,uint256)": {
        "notice": "Creates new subscription"
      },
      "executeSubscription(bytes32)": {
        "notice": "Executes subscriptions"
      },
      "getSubscriptionAmount(bytes32)": {
        "notice": "Computes how much provider can withdraw with conrete subscription"
      }
    }
  }
}