{
  "contractName": "Subscriptions",
  "abi": [
    {
      "anonymous": false,
      "inputs": [
        {
          "indexed": true,
          "name": "_id",
          "type": "bytes32"
        },
        {
          "indexed": true,
          "name": "_client",
          "type": "address"
        },
        {
          "indexed": true,
          "name": "_provider",
          "type": "address"
        },
        {
          "indexed": false,
          "name": "_token",
          "type": "address"
        },
        {
          "indexed": false,
          "name": "_time_unit",
          "type": "uint256"
        },
        {
          "indexed": false,
          "name": "_tokens_per_time_unit",
          "type": "uint256"
        }
      ],
      "name": "SubsctiptionCreated",
      "type": "event"
    },
    {
      "anonymous": false,
      "inputs": [
        {
          "indexed": true,
          "name": "_id",
          "type": "bytes32"
        },
        {
          "indexed": true,
          "name": "_client",
          "type": "address"
        },
        {
          "indexed": true,
          "name": "_provider",
          "type": "address"
        }
      ],
      "name": "SubsctiptionCanceled",
      "type": "event"
    },
    {
      "anonymous": false,
      "inputs": [
        {
          "indexed": true,
          "name": "_id",
          "type": "bytes32"
        },
        {
          "indexed": true,
          "name": "_client",
          "type": "address"
        },
        {
          "indexed": true,
          "name": "_provider",
          "type": "address"
        },
        {
          "indexed": false,
          "name": "_token",
          "type": "address"
        },
        {
          "indexed": false,
          "name": "_amount",
          "type": "uint256"
        }
      ],
      "name": "SubscriptionPayed",
      "type": "event"
    },
    {
      "constant": false,
      "inputs": [
        {
          "name": "_token",
          "type": "address"
        },
        {
          "name": "_provider",
          "type": "address"
        },
        {
          "name": "_time_uint",
          "type": "uint256"
        },
        {
          "name": "_tokens_per_time_unit",
          "type": "uint256"
        },
        {
          "name": "_max_subscription_time",
          "type": "uint256"
        }
      ],
      "name": "createSubscription",
      "outputs": [
        {
          "name": "",
          "type": "bytes32"
        }
      ],
      "payable": false,
      "stateMutability": "nonpayable",
      "type": "function"
    },
    {
      "constant": false,
      "inputs": [
        {
          "name": "_id",
          "type": "bytes32"
        }
      ],
      "name": "cancelSubscription",
      "outputs": [
        {
          "name": "",
          "type": "bool"
        }
      ],
      "payable": false,
      "stateMutability": "nonpayable",
      "type": "function"
    },
    {
      "constant": false,
      "inputs": [
        {
          "name": "_id",
          "type": "bytes32"
        }
      ],
      "name": "executeSubscription",
      "outputs": [
        {
          "name": "",
          "type": "bool"
        }
      ],
      "payable": false,
      "stateMutability": "nonpayable",
      "type": "function"
    },
    {
      "constant": true,
      "inputs": [
        {
          "name": "_id",
          "type": "bytes32"
        }
      ],
      "name": "getSubscriptionAmount",
      "outputs": [
        {
          "name": "",
          "type": "uint256"
        }
      ],
      "payable": false,
      "stateMutability": "view",
      "type": "function"
    },
    {
      "constant": true,
      "inputs": [
        {
          "name": "_id",
          "type": "bytes32"
        },
        {
          "name": "_date",
          "type": "uint256"
        }
      ],
      "name": "getSubscriptionAmountForDate",
      "outputs": [
        {
          "name": "",
          "type": "uint256"
        }
      ],
      "payable": false,
      "stateMutability": "view",
      "type": "function"
    },
    {
      "constant": true,
      "inputs": [
        {
          "name": "_client",
          "type": "address"
        }
      ],
      "name": "getClientSubscriptionCount",
      "outputs": [
        {
          "name": "",
          "type": "uint256"
        }
      ],
      "payable": false,
      "stateMutability": "view",
      "type": "function"
    },
    {
      "constant": true,
      "inputs": [
        {
          "name": "_client",
          "type": "address"
        },
        {
          "name": "_index",
          "type": "uint256"
        }
      ],
      "name": "getClientSubscription",
      "outputs": [
        {
          "name": "",
          "type": "bytes32"
        },
        {
          "name": "",
          "type": "address"
        },
        {
          "name": "",
          "type": "address"
        },
        {
          "name": "",
          "type": "address"
        },
        {
          "name": "",
          "type": "uint256"
        },
        {
          "name": "",
          "type": "uint256"
        },
        {
          "name": "",
          "type": "uint256"
        },
        {
          "name": "",
          "type": "bool"
        },
        {
          "name": "",
          "type": "uint256"
        }
      ],
      "payable": false,
      "stateMutability": "view",
      "type": "function"
    },
    {
      "constant": true,
      "inputs": [
        {
          "name": "_provider",
          "type": "address"
        }
      ],
      "name": "getProviderSubscriptionCount",
      "outputs": [
        {
          "name": "",
          "type": "uint256"
        }
      ],
      "payable": false,
      "stateMutability": "view",
      "type": "function"
    },
    {
      "constant": true,
      "inputs": [
        {
          "name": "_provider",
          "type": "address"
        },
        {
          "name": "_index",
          "type": "uint256"
        }
      ],
      "name": "getProviderSubscription",
      "outputs": [
        {
          "name": "",
          "type": "bytes32"
        },
        {
          "name": "",
          "type": "address"
        },
        {
          "name": "",
          "type": "address"
        },
        {
          "name": "",
          "type": "address"
        },
        {
          "name": "",
          "type": "uint256"
        },
        {
          "name": "",
          "type": "uint256"
        },
        {
          "name": "",
          "type": "uint256"
        },
        {
          "name": "",
          "type": "bool"
        },
        {
          "name": "",
          "type": "uint256"
        }
      ],
      "payable": false,
      "stateMutability": "view",
      "type": "function"
    }
  ],
  "bytecode": "0x608060405234801561001057600080fd5b506115c0806100206000396000f3fe608060405234801561001057600080fd5b50600436106100935760003560e01c8063876bebbb11610066578063876bebbb146101c4578063d21f1ffc146102e6578063e9cab87e1461032c578063f268f53e146103c2578063ffe4e4531461041a57610093565b806319d7f5f4146100985780633e5cb96f146100de57806373138a7f1461013657806377af836e14610178575b600080fd5b6100c4600480360360208110156100ae57600080fd5b810190808035906020019092919050505061053c565b604051808215151515815260200191505060405180910390f35b610120600480360360208110156100f457600080fd5b81019080803573ffffffffffffffffffffffffffffffffffffffff16906020019092919050505061080d565b6040518082815260200191505060405180910390f35b6101626004803603602081101561014c57600080fd5b8101908080359060200190929190505050610859565b6040518082815260200191505060405180910390f35b6101ae6004803603604081101561018e57600080fd5b81019080803590602001909291908035906020019092919050505061086c565b6040518082815260200191505060405180910390f35b610210600480360360408110156101da57600080fd5b81019080803573ffffffffffffffffffffffffffffffffffffffff1690602001909291908035906020019092919050505061092f565b604051808a81526020018973ffffffffffffffffffffffffffffffffffffffff1673ffffffffffffffffffffffffffffffffffffffff1681526020018873ffffffffffffffffffffffffffffffffffffffff1673ffffffffffffffffffffffffffffffffffffffff1681526020018773ffffffffffffffffffffffffffffffffffffffff1673ffffffffffffffffffffffffffffffffffffffff16815260200186815260200185815260200184815260200183151515158152602001828152602001995050505050505050505060405180910390f35b610312600480360360208110156102fc57600080fd5b8101908080359060200190929190505050610b63565b604051808215151515815260200191505060405180910390f35b6103ac600480360360a081101561034257600080fd5b81019080803573ffffffffffffffffffffffffffffffffffffffff169060200190929190803573ffffffffffffffffffffffffffffffffffffffff169060200190929190803590602001909291908035906020019092919080359060200190929190505050610ccc565b6040518082815260200191505060405180910390f35b610404600480360360208110156103d857600080fd5b81019080803573ffffffffffffffffffffffffffffffffffffffff16906020019092919050505061128b565b6040518082815260200191505060405180910390f35b6104666004803603604081101561043057600080fd5b81019080803573ffffffffffffffffffffffffffffffffffffffff169060200190929190803590602001909291905050506112d7565b604051808a81526020018973ffffffffffffffffffffffffffffffffffffffff1673ffffffffffffffffffffffffffffffffffffffff1681526020018873ffffffffffffffffffffffffffffffffffffffff1673ffffffffffffffffffffffffffffffffffffffff1681526020018773ffffffffffffffffffffffffffffffffffffffff1673ffffffffffffffffffffffffffffffffffffffff16815260200186815260200185815260200184815260200183151515158152602001828152602001995050505050505050505060405180910390f35b600080151560008084815260200190815260200160002060070160009054906101000a900460ff1615151461057057600080fd5b600061057b83610859565b90504260008085815260200190815260200160002060050181905550600080600085815260200190815260200160002060010160009054906101000a900473ffffffffffffffffffffffffffffffffffffffff1690508073ffffffffffffffffffffffffffffffffffffffff1663a9059cbb60008087815260200190815260200160002060020160009054906101000a900473ffffffffffffffffffffffffffffffffffffffff16846040518363ffffffff1660e01b8152600401808373ffffffffffffffffffffffffffffffffffffffff1673ffffffffffffffffffffffffffffffffffffffff16815260200182815260200192505050602060405180830381600087803b15801561068d57600080fd5b505af11580156106a1573d6000803e3d6000fd5b505050506040513d60208110156106b757600080fd5b81019080805190602001909291905050505060008085815260200190815260200160002060020160009054906101000a900473ffffffffffffffffffffffffffffffffffffffff1673ffffffffffffffffffffffffffffffffffffffff1660008086815260200190815260200160002060000160009054906101000a900473ffffffffffffffffffffffffffffffffffffffff1673ffffffffffffffffffffffffffffffffffffffff16857f4e4a619a5454597cf03d51842e2a7545f3ba895a64d2afab0030d766e5f6f5c860008089815260200190815260200160002060010160009054906101000a900473ffffffffffffffffffffffffffffffffffffffff1686604051808373ffffffffffffffffffffffffffffffffffffffff1673ffffffffffffffffffffffffffffffffffffffff1681526020018281526020019250505060405180910390a4600192505050919050565b6000600160008373ffffffffffffffffffffffffffffffffffffffff1673ffffffffffffffffffffffffffffffffffffffff168152602001908152602001600020805490509050919050565b6000610865824261086c565b9050919050565b600080600084815260200190815260200160002060050154821161088f57600080fd5b6000151560008085815260200190815260200160002060070160009054906101000a900460ff161515146108c257600080fd5b6000806000858152602001908152602001600020600301549050600080600086815260200190815260200160002060040154905060008060008781526020019081526020016000206005015490506000838287038161091d57fe5b04905082810294505050505092915050565b600080600080600080600080600080600260008d73ffffffffffffffffffffffffffffffffffffffff1673ffffffffffffffffffffffffffffffffffffffff1681526020019081526020016000208b8154811061098857fe5b9060005260206000200154905061099d61150b565b600080838152602001908152602001600020604051806101000160405290816000820160009054906101000a900473ffffffffffffffffffffffffffffffffffffffff1673ffffffffffffffffffffffffffffffffffffffff1673ffffffffffffffffffffffffffffffffffffffff1681526020016001820160009054906101000a900473ffffffffffffffffffffffffffffffffffffffff1673ffffffffffffffffffffffffffffffffffffffff1673ffffffffffffffffffffffffffffffffffffffff1681526020016002820160009054906101000a900473ffffffffffffffffffffffffffffffffffffffff1673ffffffffffffffffffffffffffffffffffffffff1673ffffffffffffffffffffffffffffffffffffffff168152602001600382015481526020016004820154815260200160058201548152602001600682015481526020016007820160009054906101000a900460ff161515151581525050905060008090508160e00151610b1c57610b1983610859565b90505b82826000015183602001518460400151856060015186608001518760a001518860e00151889b509b509b509b509b509b509b509b509b505050509295985092959850929598565b60003373ffffffffffffffffffffffffffffffffffffffff1660008084815260200190815260200160002060000160009054906101000a900473ffffffffffffffffffffffffffffffffffffffff1673ffffffffffffffffffffffffffffffffffffffff1614610bd257600080fd5b6000151560008084815260200190815260200160002060070160009054906101000a900460ff16151514610c0557600080fd5b600160008084815260200190815260200160002060070160006101000a81548160ff02191690831515021790555060008083815260200190815260200160002060020160009054906101000a900473ffffffffffffffffffffffffffffffffffffffff1673ffffffffffffffffffffffffffffffffffffffff163373ffffffffffffffffffffffffffffffffffffffff16837f936aa36ce1874a76cfca9fb477a4eee86c6085389585d6ce7e8ba78019d8d17360405160405180910390a460019050919050565b60008073ffffffffffffffffffffffffffffffffffffffff168673ffffffffffffffffffffffffffffffffffffffff161415610d0757600080fd5b600073ffffffffffffffffffffffffffffffffffffffff168573ffffffffffffffffffffffffffffffffffffffff161415610d4157600080fd5b60008411610d4e57600080fd5b60008311610d5b57600080fd5b60008211610d6857600080fd5b6000828402905060008790508073ffffffffffffffffffffffffffffffffffffffff166323b872dd3330856040518463ffffffff1660e01b8152600401808473ffffffffffffffffffffffffffffffffffffffff1673ffffffffffffffffffffffffffffffffffffffff1681526020018373ffffffffffffffffffffffffffffffffffffffff1673ffffffffffffffffffffffffffffffffffffffff1681526020018281526020019350505050602060405180830381600087803b158015610e2f57600080fd5b505af1158015610e43573d6000803e3d6000fd5b505050506040513d6020811015610e5957600080fd5b8101908080519060200190929190505050506000338989898942604051602001808773ffffffffffffffffffffffffffffffffffffffff1673ffffffffffffffffffffffffffffffffffffffff1660601b81526014018673ffffffffffffffffffffffffffffffffffffffff1673ffffffffffffffffffffffffffffffffffffffff1660601b81526014018573ffffffffffffffffffffffffffffffffffffffff1673ffffffffffffffffffffffffffffffffffffffff1660601b81526014018481526020018381526020018281526020019650505050505050604051602081830303815290604052805190602001209050610f5361150b565b6040518061010001604052803373ffffffffffffffffffffffffffffffffffffffff1681526020018b73ffffffffffffffffffffffffffffffffffffffff1681526020018a73ffffffffffffffffffffffffffffffffffffffff1681526020018981526020018881526020014281526020018781526020016000151581525090508060008084815260200190815260200160002060008201518160000160006101000a81548173ffffffffffffffffffffffffffffffffffffffff021916908373ffffffffffffffffffffffffffffffffffffffff16021790555060208201518160010160006101000a81548173ffffffffffffffffffffffffffffffffffffffff021916908373ffffffffffffffffffffffffffffffffffffffff16021790555060408201518160020160006101000a81548173ffffffffffffffffffffffffffffffffffffffff021916908373ffffffffffffffffffffffffffffffffffffffff160217905550606082015181600301556080820151816004015560a0820151816005015560c0820151816006015560e08201518160070160006101000a81548160ff021916908315150217905550905050600160003373ffffffffffffffffffffffffffffffffffffffff1673ffffffffffffffffffffffffffffffffffffffff168152602001908152602001600020829080600181540180825580915050906001820390600052602060002001600090919290919091505550600260008a73ffffffffffffffffffffffffffffffffffffffff1673ffffffffffffffffffffffffffffffffffffffff1681526020019081526020016000208290806001815401808255809150509060018203906000526020600020016000909192909190915055508873ffffffffffffffffffffffffffffffffffffffff163373ffffffffffffffffffffffffffffffffffffffff16837fc1f190f9fe628c345f8f73e8f617fb901af5f2d5ce12ac4eb5871974bbab2f598d8c8c604051808473ffffffffffffffffffffffffffffffffffffffff1673ffffffffffffffffffffffffffffffffffffffff168152602001838152602001828152602001935050505060405180910390a48194505050505095945050505050565b6000600260008373ffffffffffffffffffffffffffffffffffffffff1673ffffffffffffffffffffffffffffffffffffffff168152602001908152602001600020805490509050919050565b600080600080600080600080600080600160008d73ffffffffffffffffffffffffffffffffffffffff1673ffffffffffffffffffffffffffffffffffffffff1681526020019081526020016000208b8154811061133057fe5b9060005260206000200154905061134561150b565b600080838152602001908152602001600020604051806101000160405290816000820160009054906101000a900473ffffffffffffffffffffffffffffffffffffffff1673ffffffffffffffffffffffffffffffffffffffff1673ffffffffffffffffffffffffffffffffffffffff1681526020016001820160009054906101000a900473ffffffffffffffffffffffffffffffffffffffff1673ffffffffffffffffffffffffffffffffffffffff1673ffffffffffffffffffffffffffffffffffffffff1681526020016002820160009054906101000a900473ffffffffffffffffffffffffffffffffffffffff1673ffffffffffffffffffffffffffffffffffffffff1673ffffffffffffffffffffffffffffffffffffffff168152602001600382015481526020016004820154815260200160058201548152602001600682015481526020016007820160009054906101000a900460ff161515151581525050905060008090508160e001516114c4576114c183610859565b90505b82826000015183602001518460400151856060015186608001518760a001518860e00151889b509b509b509b509b509b509b509b509b505050509295985092959850929598565b604051806101000160405280600073ffffffffffffffffffffffffffffffffffffffff168152602001600073ffffffffffffffffffffffffffffffffffffffff168152602001600073ffffffffffffffffffffffffffffffffffffffff16815260200160008152602001600081526020016000815260200160008152602001600015158152509056fea165627a7a72305820864d9591f64d2bdab994566430bc9f67630186f2e8c6077a4a896286842fee4a0029",
  "source": "pragma solidity ^0.5.0;\n\nimport \"./IERC20.sol\";\n\ncontract Subscriptions {\n    \n    /// Describes subscription\n    struct Subscription {\n        /// subscription client\n        address client;\n        \n        /// defines the token contract which payments are paid from.\n        address token;\n        \n        /// the address of the provider\n        address provider;\n        \n        /// the number of seconds per time unit\n        uint256 time_unit;\n        \n        ///  the number of tokens that can be paid towards the subscription per time_unit;\n        uint256 tokens_per_time_unit;\n        \n        /// the timestamp when the last payment was made\n        uint256 last_payment_at;\n        \n        /// max subscription time\n        uint256 max_subscription_time;\n        \n        /// if the subscription has been cancelled\n        bool canceled;\n    }\n    \n    /// Event that a new subscription was created\n    event SubsctiptionCreated(\n        bytes32 indexed _id,\n        address indexed _client,\n        address indexed _provider,\n        address _token,\n        uint256 _time_unit,\n        uint256 _tokens_per_time_unit\n    );\n    \n    /// Event that a new subscription was canceled\n    event SubsctiptionCanceled(\n        bytes32 indexed _id,\n        address indexed _client,\n        address indexed _provider\n    );\n    \n    /// Event that a subscription was payed\n    event SubscriptionPayed(\n        bytes32 indexed _id,\n        address indexed _client,\n        address indexed _provider,\n        address _token,\n        uint256 _amount\n    );\n    \n    /// All subscriptions in a system\n    mapping(bytes32 => Subscription) subscriptions;\n    \n    /// Subscriptions of concrete user\n    mapping(address => bytes32[]) clients;\n    \n    /// Subscriptions of concrete provider\n    mapping(address => bytes32[]) providers;\n    \n    /// Creates new subscription\n    function createSubscription(\n        address _token, \n        address _provider,\n        uint256 _time_uint,\n        uint256 _tokens_per_time_unit,\n        uint256 _max_subscription_time\n    ) public returns (bytes32) {\n        \n        // Checks on input data basic validity. Note, that \n        // there can be on-chain subscription terms registry\n        //\n        require(_token != address(0));\n        require(_provider != address(0));\n        require(_time_uint > 0);\n        require(_tokens_per_time_unit > 0);\n        require(_max_subscription_time > 0);\n        \n        uint256 amount = _tokens_per_time_unit * _max_subscription_time;\n        \n        // Accept payment right away\n        //\n        IERC20 token = IERC20(_token);\n        token.transferFrom(\n            msg.sender,\n            address(this),\n            amount\n        );\n        \n        bytes32 id = keccak256(abi.encodePacked(\n            msg.sender,\n            _token,\n            _provider,\n            _time_uint,\n            _tokens_per_time_unit,\n            now\n        ));\n        \n        Subscription memory subscription = Subscription(\n            msg.sender,\n            _token,\n            _provider,\n            _time_uint,\n            _tokens_per_time_unit,\n            now,\n            _max_subscription_time,\n            false\n        );\n        \n        subscriptions[id] = subscription;\n        clients[msg.sender].push(id);\n        providers[_provider].push(id);\n        \n        emit SubsctiptionCreated(\n            id,\n            msg.sender,\n            _provider,\n            _token,\n            _time_uint,\n            _tokens_per_time_unit\n        );\n        \n        return id;\n    }\n    \n    /// Cancels subscription\n    function cancelSubscription(\n        bytes32 _id\n    ) public returns (bool) {\n        \n        require(subscriptions[_id].client == msg.sender);\n        require(subscriptions[_id].canceled == false);\n        \n        subscriptions[_id].canceled = true;\n        \n        emit SubsctiptionCanceled(\n            _id,\n            msg.sender,\n            subscriptions[_id].provider\n        );\n        \n        return true;\n    }\n    \n    /// Executes subscriptions\n    function executeSubscription(\n        bytes32 _id\n    ) public returns (bool) {\n            \n        require(subscriptions[_id].canceled == false);\n        \n        uint256 amount = getSubscriptionAmount(_id);\n        \n        subscriptions[_id].last_payment_at = now;\n        \n        IERC20 token = IERC20(subscriptions[_id].token);\n        token.transfer(subscriptions[_id].provider, amount);\n        \n        emit SubscriptionPayed(\n            _id,\n            subscriptions[_id].client,\n            subscriptions[_id].provider,\n            subscriptions[_id].token,\n            amount\n        );\n        \n        return true;\n    }\n    \n    /// Computes how much provider can withdraw with conrete subscription\n    function getSubscriptionAmount(\n        bytes32 _id\n    ) public view returns (uint256) {\n        \n        return getSubscriptionAmountForDate(_id, now);\n    }\n    \n        /// Computes how much provider can withdraw with conrete subscription\n    function getSubscriptionAmountForDate(\n        bytes32 _id,\n        uint256 _date\n    ) public view returns (uint256) {\n        \n        require(_date > subscriptions[_id].last_payment_at);\n        require(subscriptions[_id].canceled == false);\n        \n        uint256 time_unit = subscriptions[_id].time_unit;\n        uint256 tokens_per_time_unit = subscriptions[_id].tokens_per_time_unit;\n        uint256 last_payment_at = subscriptions[_id].last_payment_at;\n        \n        uint256 periods = (_date - last_payment_at) / time_unit;\n        \n        return periods * tokens_per_time_unit;\n    }\n    \n    function getClientSubscriptionCount(\n        address _client\n    ) public view returns (uint256) {\n        return clients[_client].length;\n    }\n    \n    function getClientSubscription(\n        address _client,\n        uint256 _index\n    ) public view returns \n    (\n        bytes32,\n        address,\n        address,\n        address,\n        uint256,\n        uint256,\n        uint256,\n        bool,\n        uint256\n    ) {\n        bytes32 id = clients[_client][_index];\n        Subscription memory subscription = subscriptions[id];\n        uint256 amount = 0;\n        if (!subscription.canceled) {\n            amount = getSubscriptionAmount(id);\n        }\n        return (\n            id,\n            subscription.client,\n            subscription.token,\n            subscription.provider,\n            subscription.time_unit,\n            subscription.tokens_per_time_unit,\n            subscription.last_payment_at,\n            subscription.canceled,\n            amount\n        );\n    }\n    \n    function getProviderSubscriptionCount(\n        address _provider\n    ) public view returns (uint256) {\n        return providers[_provider].length;\n    }\n    \n    function getProviderSubscription(\n        address _provider,\n        uint256 _index\n    ) public view returns \n    (\n        bytes32,\n        address,\n        address,\n        address,\n        uint256,\n        uint256,\n        uint256,\n        bool,\n        uint256\n    ) {\n        bytes32 id = providers[_provider][_index];\n        Subscription memory subscription = subscriptions[id];\n        uint256 amount = 0;\n        if (!subscription.canceled) {\n            amount = getSubscriptionAmount(id);\n        }\n        return (\n            id,\n            subscription.client,\n            subscription.token,\n            subscription.provider,\n            subscription.time_unit,\n            subscription.tokens_per_time_unit,\n            subscription.last_payment_at,\n            subscription.canceled,\n            amount\n        );\n    }\n}\n",
  "sourcePath": "/Users/dvasin/dev/easyscribe/contracts/Subscriptions.sol",
  "compiler": {
    "name": "solc",
    "version": "0.5.8+commit.23d335f2.Emscripten.clang"
  },
  "schemaVersion": "3.0.16",
  "updatedAt": "2019-10-26T18:48:24.690Z",
  "devdoc": {
    "methods": {}
  },
  "userdoc": {
    "methods": {
      "cancelSubscription(bytes32)": {
        "notice": "Cancels subscription"
      },
      "createSubscription(address,address,uint256,uint256,uint256)": {
        "notice": "Creates new subscription"
      },
      "executeSubscription(bytes32)": {
        "notice": "Executes subscriptions"
      },
      "getSubscriptionAmount(bytes32)": {
        "notice": "Computes how much provider can withdraw with conrete subscription"
      },
      "getSubscriptionAmountForDate(bytes32,uint256)": {
        "notice": "Computes how much provider can withdraw with conrete subscription"
      }
    }
  }
}